{
  "contractName": "ArteonGPU",
  "abi": [
    {
      "inputs": [
        {
          "internalType": "string",
          "name": "tokenURI_",
          "type": "string"
        },
        {
          "internalType": "uint256",
          "name": "cap_",
          "type": "uint256"
        },
        {
          "internalType": "string",
          "name": "symbol",
          "type": "string"
        }
      ],
      "stateMutability": "nonpayable",
      "type": "constructor"
    },
    {
      "anonymous": false,
      "inputs": [
        {
          "indexed": true,
          "internalType": "address",
          "name": "owner",
          "type": "address"
        },
        {
          "indexed": true,
          "internalType": "address",
          "name": "approved",
          "type": "address"
        },
        {
          "indexed": true,
          "internalType": "uint256",
          "name": "tokenId",
          "type": "uint256"
        }
      ],
      "name": "Approval",
      "type": "event"
    },
    {
      "anonymous": false,
      "inputs": [
        {
          "indexed": true,
          "internalType": "address",
          "name": "owner",
          "type": "address"
        },
        {
          "indexed": true,
          "internalType": "address",
          "name": "operator",
          "type": "address"
        },
        {
          "indexed": false,
          "internalType": "bool",
          "name": "approved",
          "type": "bool"
        }
      ],
      "name": "ApprovalForAll",
      "type": "event"
    },
    {
      "anonymous": false,
      "inputs": [
        {
          "indexed": true,
          "internalType": "address",
          "name": "previousOwner",
          "type": "address"
        },
        {
          "indexed": true,
          "internalType": "address",
          "name": "newOwner",
          "type": "address"
        }
      ],
      "name": "OwnershipTransferred",
      "type": "event"
    },
    {
      "anonymous": false,
      "inputs": [
        {
          "indexed": true,
          "internalType": "address",
          "name": "from",
          "type": "address"
        },
        {
          "indexed": true,
          "internalType": "address",
          "name": "to",
          "type": "address"
        },
        {
          "indexed": true,
          "internalType": "uint256",
          "name": "tokenId",
          "type": "uint256"
        }
      ],
      "name": "Transfer",
      "type": "event"
    },
    {
      "inputs": [
        {
          "internalType": "address",
          "name": "to",
          "type": "address"
        },
        {
          "internalType": "uint256",
          "name": "tokenId",
          "type": "uint256"
        }
      ],
      "name": "approve",
      "outputs": [],
      "stateMutability": "nonpayable",
      "type": "function"
    },
    {
      "inputs": [
        {
          "internalType": "address",
          "name": "owner",
          "type": "address"
        }
      ],
      "name": "balanceOf",
      "outputs": [
        {
          "internalType": "uint256",
          "name": "",
          "type": "uint256"
        }
      ],
      "stateMutability": "view",
      "type": "function"
    },
    {
      "inputs": [
        {
          "internalType": "uint256",
          "name": "tokenId",
          "type": "uint256"
        }
      ],
      "name": "getApproved",
      "outputs": [
        {
          "internalType": "address",
          "name": "",
          "type": "address"
        }
      ],
      "stateMutability": "view",
      "type": "function"
    },
    {
      "inputs": [
        {
          "internalType": "address",
          "name": "owner",
          "type": "address"
        },
        {
          "internalType": "address",
          "name": "operator",
          "type": "address"
        }
      ],
      "name": "isApprovedForAll",
      "outputs": [
        {
          "internalType": "bool",
          "name": "",
          "type": "bool"
        }
      ],
      "stateMutability": "view",
      "type": "function"
    },
    {
      "inputs": [],
      "name": "name",
      "outputs": [
        {
          "internalType": "string",
          "name": "",
          "type": "string"
        }
      ],
      "stateMutability": "view",
      "type": "function"
    },
    {
      "inputs": [],
      "name": "owner",
      "outputs": [
        {
          "internalType": "address",
          "name": "",
          "type": "address"
        }
      ],
      "stateMutability": "view",
      "type": "function"
    },
    {
      "inputs": [
        {
          "internalType": "uint256",
          "name": "tokenId",
          "type": "uint256"
        }
      ],
      "name": "ownerOf",
      "outputs": [
        {
          "internalType": "address",
          "name": "",
          "type": "address"
        }
      ],
      "stateMutability": "view",
      "type": "function"
    },
    {
      "inputs": [],
      "name": "renounceOwnership",
      "outputs": [],
      "stateMutability": "nonpayable",
      "type": "function"
    },
    {
      "inputs": [
        {
          "internalType": "address",
          "name": "from",
          "type": "address"
        },
        {
          "internalType": "address",
          "name": "to",
          "type": "address"
        },
        {
          "internalType": "uint256",
          "name": "tokenId",
          "type": "uint256"
        }
      ],
      "name": "safeTransferFrom",
      "outputs": [],
      "stateMutability": "nonpayable",
      "type": "function"
    },
    {
      "inputs": [
        {
          "internalType": "address",
          "name": "from",
          "type": "address"
        },
        {
          "internalType": "address",
          "name": "to",
          "type": "address"
        },
        {
          "internalType": "uint256",
          "name": "tokenId",
          "type": "uint256"
        },
        {
          "internalType": "bytes",
          "name": "_data",
          "type": "bytes"
        }
      ],
      "name": "safeTransferFrom",
      "outputs": [],
      "stateMutability": "nonpayable",
      "type": "function"
    },
    {
      "inputs": [
        {
          "internalType": "address",
          "name": "operator",
          "type": "address"
        },
        {
          "internalType": "bool",
          "name": "approved",
          "type": "bool"
        }
      ],
      "name": "setApprovalForAll",
      "outputs": [],
      "stateMutability": "nonpayable",
      "type": "function"
    },
    {
      "inputs": [
        {
          "internalType": "bytes4",
          "name": "interfaceId",
          "type": "bytes4"
        }
      ],
      "name": "supportsInterface",
      "outputs": [
        {
          "internalType": "bool",
          "name": "",
          "type": "bool"
        }
      ],
      "stateMutability": "view",
      "type": "function"
    },
    {
      "inputs": [],
      "name": "symbol",
      "outputs": [
        {
          "internalType": "string",
          "name": "",
          "type": "string"
        }
      ],
      "stateMutability": "view",
      "type": "function"
    },
    {
      "inputs": [
        {
          "internalType": "address",
          "name": "from",
          "type": "address"
        },
        {
          "internalType": "address",
          "name": "to",
          "type": "address"
        },
        {
          "internalType": "uint256",
          "name": "tokenId",
          "type": "uint256"
        }
      ],
      "name": "transferFrom",
      "outputs": [],
      "stateMutability": "nonpayable",
      "type": "function"
    },
    {
      "inputs": [
        {
          "internalType": "address",
          "name": "newOwner",
          "type": "address"
        }
      ],
      "name": "transferOwnership",
      "outputs": [],
      "stateMutability": "nonpayable",
      "type": "function"
    },
    {
      "inputs": [],
      "name": "supplyCap",
      "outputs": [
        {
          "internalType": "uint256",
          "name": "",
          "type": "uint256"
        }
      ],
      "stateMutability": "view",
      "type": "function"
    },
    {
      "inputs": [],
      "name": "totalSupply",
      "outputs": [
        {
          "internalType": "uint256",
          "name": "",
          "type": "uint256"
        }
      ],
      "stateMutability": "view",
      "type": "function"
    },
    {
      "inputs": [
        {
          "internalType": "uint256",
          "name": "tokenId",
          "type": "uint256"
        }
      ],
      "name": "tokenURI",
      "outputs": [
        {
          "internalType": "string",
          "name": "",
          "type": "string"
        }
      ],
      "stateMutability": "view",
      "type": "function"
    },
    {
      "inputs": [
        {
          "internalType": "address",
          "name": "to",
          "type": "address"
        }
      ],
      "name": "addCard",
      "outputs": [
        {
          "internalType": "uint256",
          "name": "",
          "type": "uint256"
        }
      ],
      "stateMutability": "nonpayable",
      "type": "function"
    }
  ],
  "bytecode": "0x60806040523480156200001157600080fd5b50604051620020b9380380620020b9833981016040819052620000349162000256565b60408051808201909152600980825268417274656f6e47707560b81b602083019081528391620000679160009162000105565b5080516200007d90600190602084019062000105565b5050506000620000926200010160201b60201c565b600680546001600160a01b0319166001600160a01b038316908117909155604051919250906000907f8be0079c531659141344cd1fd0a4f28419497f9722a3daafe3b4186f6b6457e0908290a3508251620000f590600890602086019062000105565b50506009555062000319565b3390565b8280546200011390620002c6565b90600052602060002090601f01602090048101928262000137576000855562000182565b82601f106200015257805160ff191683800117855562000182565b8280016001018555821562000182579182015b828111156200018257825182559160200191906001019062000165565b506200019092915062000194565b5090565b5b8082111562000190576000815560010162000195565b600082601f830112620001bc578081fd5b81516001600160401b0380821115620001d957620001d962000303565b6040516020601f8401601f191682018101838111838210171562000201576200020162000303565b604052838252858401810187101562000218578485fd5b8492505b838310156200023b57858301810151828401820152918201916200021c565b838311156200024c57848185840101525b5095945050505050565b6000806000606084860312156200026b578283fd5b83516001600160401b038082111562000282578485fd5b6200029087838801620001ab565b9450602086015193506040860151915080821115620002ad578283fd5b50620002bc86828701620001ab565b9150509250925092565b600281046001821680620002db57607f821691505b60208210811415620002fd57634e487b7160e01b600052602260045260246000fd5b50919050565b634e487b7160e01b600052604160045260246000fd5b611d9080620003296000396000f3fe608060405234801561001057600080fd5b50600436106101515760003560e01c806370a08231116100cd578063a22cb46511610081578063c87b56dd11610066578063c87b56dd14610283578063e985e9c514610296578063f2fde38b146102a957610151565b8063a22cb4651461025d578063b88d4fde1461027057610151565b80638da5cb5b116100b25780638da5cb5b146102455780638f770ad01461024d57806395d89b411461025557610151565b806370a082311461022a578063715018a61461023d57610151565b806318160ddd116101245780633dc50952116101095780633dc50952146101f157806342842e0e146102045780636352211e1461021757610151565b806318160ddd146101c957806323b872dd146101de57610151565b806301ffc9a71461015657806306fdde031461017f578063081812fc14610194578063095ea7b3146101b4575b600080fd5b610169610164366004611593565b6102bc565b60405161017691906116b6565b60405180910390f35b610187610366565b60405161017691906116c1565b6101a76101a23660046115cb565b6103f8565b604051610176919061164c565b6101c76101c236600461156a565b61046b565b005b6101d161056b565b6040516101769190611c3f565b6101c76101ec36600461140b565b61057c565b6101d16101ff3660046113b8565b6105ce565b6101c761021236600461140b565b6106a1565b6101a76102253660046115cb565b6106bc565b6101d16102383660046113b8565b610718565b6101c7610790565b6101a7610872565b6101d161088e565b610187610894565b6101c761026b366004611530565b6108a3565b6101c761027e366004611446565b6109dd565b6101876102913660046115cb565b610a36565b6101696102a43660046113d9565b610b09565b6101c76102b73660046113b8565b610b44565b60007fffffffff0000000000000000000000000000000000000000000000000000000082167f80ac58cd00000000000000000000000000000000000000000000000000000000148061034f57507fffffffff0000000000000000000000000000000000000000000000000000000082167f5b5e139f00000000000000000000000000000000000000000000000000000000145b8061035e575061035e82610c92565b90505b919050565b60606000805461037590611c77565b80601f01602080910402602001604051908101604052809291908181526020018280546103a190611c77565b80156103ee5780601f106103c3576101008083540402835291602001916103ee565b820191906000526020600020905b8154815290600101906020018083116103d157829003601f168201915b5050505050905090565b600061040382610cdc565b610442576040517f08c379a000000000000000000000000000000000000000000000000000000000815260040161043990611a02565b60405180910390fd5b5060009081526004602052604090205473ffffffffffffffffffffffffffffffffffffffff1690565b6000610476826106bc565b90508073ffffffffffffffffffffffffffffffffffffffff168373ffffffffffffffffffffffffffffffffffffffff1614156104de576040517f08c379a000000000000000000000000000000000000000000000000000000000815260040161043990611b85565b8073ffffffffffffffffffffffffffffffffffffffff166104fd610d06565b73ffffffffffffffffffffffffffffffffffffffff1614806105265750610526816102a4610d06565b61055c576040517f08c379a0000000000000000000000000000000000000000000000000000000008152600401610439906118b6565b6105668383610d0a565b505050565b60006105776007610daa565b905090565b61058d610587610d06565b82610dae565b6105c3576040517f08c379a000000000000000000000000000000000000000000000000000000000815260040161043990611be2565b610566838383610e81565b60006105d8610d06565b73ffffffffffffffffffffffffffffffffffffffff166105f6610872565b73ffffffffffffffffffffffffffffffffffffffff1614610643576040517f08c379a000000000000000000000000000000000000000000000000000000000815260040161043990611a5f565b61064d6007611048565b60006106596007610daa565b9050600954811115610697576040517f08c379a000000000000000000000000000000000000000000000000000000000815260040161043990611af1565b61035e8382611051565b610566838383604051806020016040528060008152506109dd565b60008181526002602052604081205473ffffffffffffffffffffffffffffffffffffffff168061035e576040517f08c379a000000000000000000000000000000000000000000000000000000000815260040161043990611970565b600073ffffffffffffffffffffffffffffffffffffffff8216610767576040517f08c379a000000000000000000000000000000000000000000000000000000000815260040161043990611913565b5073ffffffffffffffffffffffffffffffffffffffff1660009081526003602052604090205490565b610798610d06565b73ffffffffffffffffffffffffffffffffffffffff166107b6610872565b73ffffffffffffffffffffffffffffffffffffffff1614610803576040517f08c379a000000000000000000000000000000000000000000000000000000000815260040161043990611a5f565b60065460405160009173ffffffffffffffffffffffffffffffffffffffff16907f8be0079c531659141344cd1fd0a4f28419497f9722a3daafe3b4186f6b6457e0908390a3600680547fffffffffffffffffffffffff0000000000000000000000000000000000000000169055565b60065473ffffffffffffffffffffffffffffffffffffffff1690565b60095490565b60606001805461037590611c77565b6108ab610d06565b73ffffffffffffffffffffffffffffffffffffffff168273ffffffffffffffffffffffffffffffffffffffff161415610910576040517f08c379a000000000000000000000000000000000000000000000000000000000815260040161043990611822565b806005600061091d610d06565b73ffffffffffffffffffffffffffffffffffffffff90811682526020808301939093526040918201600090812091871680825291909352912080547fffffffffffffffffffffffffffffffffffffffffffffffffffffffffffffff00169215159290921790915561098c610d06565b73ffffffffffffffffffffffffffffffffffffffff167f17307eab39ab6107e8899845ad3d59bd9653f200f220920489ca2b5937696c31836040516109d191906116b6565b60405180910390a35050565b6109ee6109e8610d06565b83610dae565b610a24576040517f08c379a000000000000000000000000000000000000000000000000000000000815260040161043990611be2565b610a30848484846111a3565b50505050565b6060610a4182610cdc565b610a77576040517f08c379a000000000000000000000000000000000000000000000000000000000815260040161043990611b28565b60088054610a8490611c77565b80601f0160208091040260200160405190810160405280929190818152602001828054610ab090611c77565b8015610afd5780601f10610ad257610100808354040283529160200191610afd565b820191906000526020600020905b815481529060010190602001808311610ae057829003601f168201915b50505050509050919050565b73ffffffffffffffffffffffffffffffffffffffff918216600090815260056020908152604080832093909416825291909152205460ff1690565b610b4c610d06565b73ffffffffffffffffffffffffffffffffffffffff16610b6a610872565b73ffffffffffffffffffffffffffffffffffffffff1614610bb7576040517f08c379a000000000000000000000000000000000000000000000000000000000815260040161043990611a5f565b73ffffffffffffffffffffffffffffffffffffffff8116610c04576040517f08c379a000000000000000000000000000000000000000000000000000000000815260040161043990611731565b60065460405173ffffffffffffffffffffffffffffffffffffffff8084169216907f8be0079c531659141344cd1fd0a4f28419497f9722a3daafe3b4186f6b6457e090600090a3600680547fffffffffffffffffffffffff00000000000000000000000000000000000000001673ffffffffffffffffffffffffffffffffffffffff92909216919091179055565b7fffffffff0000000000000000000000000000000000000000000000000000000081167f01ffc9a70000000000000000000000000000000000000000000000000000000014919050565b60009081526002602052604090205473ffffffffffffffffffffffffffffffffffffffff16151590565b3390565b600081815260046020526040902080547fffffffffffffffffffffffff00000000000000000000000000000000000000001673ffffffffffffffffffffffffffffffffffffffff84169081179091558190610d64826106bc565b73ffffffffffffffffffffffffffffffffffffffff167f8c5be1e5ebec7d5bd14f71427d1e84f3dd0314c0f7b2291e5b200ac8c7c3b92560405160405180910390a45050565b5490565b6000610db982610cdc565b610def576040517f08c379a000000000000000000000000000000000000000000000000000000000815260040161043990611859565b6000610dfa836106bc565b90508073ffffffffffffffffffffffffffffffffffffffff168473ffffffffffffffffffffffffffffffffffffffff161480610e6957508373ffffffffffffffffffffffffffffffffffffffff16610e51846103f8565b73ffffffffffffffffffffffffffffffffffffffff16145b80610e795750610e798185610b09565b949350505050565b8273ffffffffffffffffffffffffffffffffffffffff16610ea1826106bc565b73ffffffffffffffffffffffffffffffffffffffff1614610eee576040517f08c379a000000000000000000000000000000000000000000000000000000000815260040161043990611a94565b73ffffffffffffffffffffffffffffffffffffffff8216610f3b576040517f08c379a0000000000000000000000000000000000000000000000000000000008152600401610439906117c5565b610f46838383610566565b610f51600082610d0a565b73ffffffffffffffffffffffffffffffffffffffff83166000908152600360205260408120805460019290610f87908490611c60565b909155505073ffffffffffffffffffffffffffffffffffffffff82166000908152600360205260408120805460019290610fc2908490611c48565b909155505060008181526002602052604080822080547fffffffffffffffffffffffff00000000000000000000000000000000000000001673ffffffffffffffffffffffffffffffffffffffff86811691821790925591518493918716917fddf252ad1be2c89b69c2b068fc378daa952ba7f163c4a11628f55a4df523b3ef91a4505050565b80546001019055565b73ffffffffffffffffffffffffffffffffffffffff821661109e576040517f08c379a0000000000000000000000000000000000000000000000000000000008152600401610439906119cd565b6110a781610cdc565b156110de576040517f08c379a00000000000000000000000000000000000000000000000000000000081526004016104399061178e565b6110ea60008383610566565b73ffffffffffffffffffffffffffffffffffffffff82166000908152600360205260408120805460019290611120908490611c48565b909155505060008181526002602052604080822080547fffffffffffffffffffffffff00000000000000000000000000000000000000001673ffffffffffffffffffffffffffffffffffffffff861690811790915590518392907fddf252ad1be2c89b69c2b068fc378daa952ba7f163c4a11628f55a4df523b3ef908290a45050565b6111ae848484610e81565b6111ba848484846111f0565b610a30576040517f08c379a0000000000000000000000000000000000000000000000000000000008152600401610439906116d4565b60006112118473ffffffffffffffffffffffffffffffffffffffff1661138e565b15611383578373ffffffffffffffffffffffffffffffffffffffff1663150b7a0261123a610d06565b8786866040518563ffffffff1660e01b815260040161125c949392919061166d565b602060405180830381600087803b15801561127657600080fd5b505af19250505080156112c4575060408051601f3d9081017fffffffffffffffffffffffffffffffffffffffffffffffffffffffffffffffe01682019092526112c1918101906115af565b60015b611338573d8080156112f2576040519150601f19603f3d011682016040523d82523d6000602084013e6112f7565b606091505b508051611330576040517f08c379a0000000000000000000000000000000000000000000000000000000008152600401610439906116d4565b805181602001fd5b7fffffffff00000000000000000000000000000000000000000000000000000000167f150b7a0200000000000000000000000000000000000000000000000000000000149050610e79565b506001949350505050565b3b151590565b803573ffffffffffffffffffffffffffffffffffffffff8116811461036157600080fd5b6000602082840312156113c9578081fd5b6113d282611394565b9392505050565b600080604083850312156113eb578081fd5b6113f483611394565b915061140260208401611394565b90509250929050565b60008060006060848603121561141f578081fd5b61142884611394565b925061143660208501611394565b9150604084013590509250925092565b6000806000806080858703121561145b578081fd5b61146485611394565b93506020611473818701611394565b935060408601359250606086013567ffffffffffffffff80821115611496578384fd5b818801915088601f8301126114a9578384fd5b8135818111156114bb576114bb611cfa565b604051847fffffffffffffffffffffffffffffffffffffffffffffffffffffffffffffffe0601f84011682010181811084821117156114fc576114fc611cfa565b60405281815283820185018b1015611512578586fd5b81858501868301379081019093019390935250939692955090935050565b60008060408385031215611542578182fd5b61154b83611394565b91506020830135801515811461155f578182fd5b809150509250929050565b6000806040838503121561157c578182fd5b61158583611394565b946020939093013593505050565b6000602082840312156115a4578081fd5b81356113d281611d29565b6000602082840312156115c0578081fd5b81516113d281611d29565b6000602082840312156115dc578081fd5b5035919050565b60008151808452815b81811015611608576020818501810151868301820152016115ec565b818111156116195782602083870101525b50601f017fffffffffffffffffffffffffffffffffffffffffffffffffffffffffffffffe0169290920160200192915050565b73ffffffffffffffffffffffffffffffffffffffff91909116815260200190565b600073ffffffffffffffffffffffffffffffffffffffff8087168352808616602084015250836040830152608060608301526116ac60808301846115e3565b9695505050505050565b901515815260200190565b6000602082526113d260208301846115e3565b60208082526032908201527f4552433732313a207472616e7366657220746f206e6f6e20455243373231526560408201527f63656976657220696d706c656d656e7465720000000000000000000000000000606082015260800190565b60208082526026908201527f4f776e61626c653a206e6577206f776e657220697320746865207a65726f206160408201527f6464726573730000000000000000000000000000000000000000000000000000606082015260800190565b6020808252601c908201527f4552433732313a20746f6b656e20616c7265616479206d696e74656400000000604082015260600190565b60208082526024908201527f4552433732313a207472616e7366657220746f20746865207a65726f2061646460408201527f7265737300000000000000000000000000000000000000000000000000000000606082015260800190565b60208082526019908201527f4552433732313a20617070726f766520746f2063616c6c657200000000000000604082015260600190565b6020808252602c908201527f4552433732313a206f70657261746f7220717565727920666f72206e6f6e657860408201527f697374656e7420746f6b656e0000000000000000000000000000000000000000606082015260800190565b60208082526038908201527f4552433732313a20617070726f76652063616c6c6572206973206e6f74206f7760408201527f6e6572206e6f7220617070726f76656420666f7220616c6c0000000000000000606082015260800190565b6020808252602a908201527f4552433732313a2062616c616e636520717565727920666f7220746865207a6560408201527f726f206164647265737300000000000000000000000000000000000000000000606082015260800190565b60208082526029908201527f4552433732313a206f776e657220717565727920666f72206e6f6e657869737460408201527f656e7420746f6b656e0000000000000000000000000000000000000000000000606082015260800190565b6020808252818101527f4552433732313a206d696e7420746f20746865207a65726f2061646472657373604082015260600190565b6020808252602c908201527f4552433732313a20617070726f76656420717565727920666f72206e6f6e657860408201527f697374656e7420746f6b656e0000000000000000000000000000000000000000606082015260800190565b6020808252818101527f4f776e61626c653a2063616c6c6572206973206e6f7420746865206f776e6572604082015260600190565b60208082526029908201527f4552433732313a207472616e73666572206f6620746f6b656e2074686174206960408201527f73206e6f74206f776e0000000000000000000000000000000000000000000000606082015260800190565b60208082526013908201527f535550504c595f4341505f455843454544454400000000000000000000000000604082015260600190565b6020808252602f908201527f4552433732314d657461646174613a2055524920717565727920666f72206e6f60408201527f6e6578697374656e7420746f6b656e0000000000000000000000000000000000606082015260800190565b60208082526021908201527f4552433732313a20617070726f76616c20746f2063757272656e74206f776e6560408201527f7200000000000000000000000000000000000000000000000000000000000000606082015260800190565b60208082526031908201527f4552433732313a207472616e736665722063616c6c6572206973206e6f74206f60408201527f776e6572206e6f7220617070726f766564000000000000000000000000000000606082015260800190565b90815260200190565b60008219821115611c5b57611c5b611ccb565b500190565b600082821015611c7257611c72611ccb565b500390565b600281046001821680611c8b57607f821691505b60208210811415611cc5577f4e487b7100000000000000000000000000000000000000000000000000000000600052602260045260246000fd5b50919050565b7f4e487b7100000000000000000000000000000000000000000000000000000000600052601160045260246000fd5b7f4e487b7100000000000000000000000000000000000000000000000000000000600052604160045260246000fd5b7fffffffff0000000000000000000000000000000000000000000000000000000081168114611d5757600080fd5b5056fea2646970667358221220547aa4a3864ccb118b0391dde1063bc6a2be638a7bebceff2411bd39e10a9c5a64736f6c63430008000033",
  "immutableReferences": {},
  "source": "pragma solidity ^0.8.0;\r\nimport \"./../../node_modules/@openzeppelin/contracts/token/ERC721/ERC721.sol\";\r\nimport \"./../../node_modules/@openzeppelin/contracts/utils/Counters.sol\";\r\nimport './../../node_modules/@openzeppelin/contracts/access/Ownable.sol';\r\nimport './interfaces/IArteonGPU.sol';\r\n\r\ncontract ArteonGPU is IArteonGPU, ERC721, Ownable {\r\n  using Counters for Counters.Counter;\r\n  Counters.Counter private _tokenIds;\r\n\r\n  string private _tokenURI;\r\n  uint256 private _cap;\r\n\r\n  constructor(string memory tokenURI_, uint256 cap_, string memory symbol) ERC721('ArteonGpu', symbol) {\r\n    _tokenURI = tokenURI_;\r\n    _cap = cap_;\r\n  }\r\n\r\n  function supplyCap() public view virtual override returns (uint256) {\r\n    return _cap;\r\n  }\r\n\r\n  function totalSupply() public view virtual override returns (uint256) {\r\n    return _tokenIds.current();\r\n  }\r\n\r\n  function tokenURI(uint256 tokenId) public view virtual override returns (string memory) {\r\n    require(_exists(tokenId), \"ERC721Metadata: URI query for nonexistent token\");\r\n    return _tokenURI;\r\n  }\r\n\r\n  function addCard(address to) public override onlyOwner returns (uint256) {\r\n    _tokenIds.increment();\r\n\r\n    uint256 _tokenId = _tokenIds.current();\r\n    require(_tokenId <= _cap, 'SUPPLY_CAP_EXCEEDED');\r\n    _mint(to, _tokenId);\r\n\r\n    return _tokenId;\r\n  }\r\n}\r\n",
  "sourcePath": "D:\\Workspace\\Arteon\\arteon-contracts\\gpu\\contracts\\ArteonGPU.sol",
  "compiler": {
    "name": "solc",
    "version": "0.8.0+commit.c7dfd78e.Emscripten.clang"
  },
  "schemaVersion": "3.3.4",
  "updatedAt": "2021-06-11T17:32:53.639Z",
  "devdoc": {
    "kind": "dev",
    "methods": {
      "approve(address,uint256)": {
        "details": "See {IERC721-approve}."
      },
      "balanceOf(address)": {
        "details": "See {IERC721-balanceOf}."
      },
      "getApproved(uint256)": {
        "details": "See {IERC721-getApproved}."
      },
      "isApprovedForAll(address,address)": {
        "details": "See {IERC721-isApprovedForAll}."
      },
      "name()": {
        "details": "See {IERC721Metadata-name}."
      },
      "owner()": {
        "details": "Returns the address of the current owner."
      },
      "ownerOf(uint256)": {
        "details": "See {IERC721-ownerOf}."
      },
      "renounceOwnership()": {
        "details": "Leaves the contract without owner. It will not be possible to call `onlyOwner` functions anymore. Can only be called by the current owner. NOTE: Renouncing ownership will leave the contract without an owner, thereby removing any functionality that is only available to the owner."
      },
      "safeTransferFrom(address,address,uint256)": {
        "details": "See {IERC721-safeTransferFrom}."
      },
      "safeTransferFrom(address,address,uint256,bytes)": {
        "details": "See {IERC721-safeTransferFrom}."
      },
      "setApprovalForAll(address,bool)": {
        "details": "See {IERC721-setApprovalForAll}."
      },
      "supportsInterface(bytes4)": {
        "details": "See {IERC165-supportsInterface}."
      },
      "symbol()": {
        "details": "See {IERC721Metadata-symbol}."
      },
      "tokenURI(uint256)": {
        "details": "See {IERC721Metadata-tokenURI}."
      },
      "transferFrom(address,address,uint256)": {
        "details": "See {IERC721-transferFrom}."
      },
      "transferOwnership(address)": {
        "details": "Transfers ownership of the contract to a new account (`newOwner`). Can only be called by the current owner."
      }
    },
    "version": 1
  },
  "userdoc": {
    "kind": "user",
    "methods": {},
    "version": 1
  }
}