{
  "contractName": "ERC721Holder",
  "abi": [
    {
      "inputs": [
        {
          "internalType": "address",
          "name": "",
          "type": "address"
        },
        {
          "internalType": "address",
          "name": "",
          "type": "address"
        },
        {
          "internalType": "uint256",
          "name": "",
          "type": "uint256"
        },
        {
          "internalType": "bytes",
          "name": "",
          "type": "bytes"
        }
      ],
      "name": "onERC721Received",
      "outputs": [
        {
          "internalType": "bytes4",
          "name": "",
          "type": "bytes4"
        }
      ],
      "stateMutability": "nonpayable",
      "type": "function"
    }
  ],
  "bytecode": "0x608060405234801561001057600080fd5b50610227806100206000396000f3fe608060405234801561001057600080fd5b506004361061002b5760003560e01c8063150b7a0214610030575b600080fd5b61004361003e3660046100ab565b610059565b6040516100509190610195565b60405180910390f35b7f150b7a0200000000000000000000000000000000000000000000000000000000949350505050565b803573ffffffffffffffffffffffffffffffffffffffff811681146100a657600080fd5b919050565b600080600080608085870312156100c0578384fd5b6100c985610082565b935060206100d8818701610082565b935060408601359250606086013567ffffffffffffffff808211156100fb578384fd5b818801915088601f83011261010e578384fd5b813581811115610120576101206101c2565b604051847fffffffffffffffffffffffffffffffffffffffffffffffffffffffffffffffe0601f8401168201018181108482111715610161576101616101c2565b60405281815283820185018b1015610177578586fd5b81858501868301379081019093019390935250939692955090935050565b7fffffffff0000000000000000000000000000000000000000000000000000000091909116815260200190565b7f4e487b7100000000000000000000000000000000000000000000000000000000600052604160045260246000fdfea2646970667358221220cb7932025a32756e802fa672562ebbadb5bb6fea95c4c2dfa8f82a94893d61d364736f6c63430008000033",
  "immutableReferences": {},
  "source": "// SPDX-License-Identifier: MIT\n\npragma solidity ^0.8.0;\n\nimport \"../IERC721Receiver.sol\";\n\n  /**\n   * @dev Implementation of the {IERC721Receiver} interface.\n   *\n   * Accepts all token transfers.\n   * Make sure the contract is able to use its token with {IERC721-safeTransferFrom}, {IERC721-approve} or {IERC721-setApprovalForAll}.\n   */\ncontract ERC721Holder is IERC721Receiver {\n\n    /**\n     * @dev See {IERC721Receiver-onERC721Received}.\n     *\n     * Always returns `IERC721Receiver.onERC721Received.selector`.\n     */\n    function onERC721Received(address, address, uint256, bytes memory) public virtual override returns (bytes4) {\n        return this.onERC721Received.selector;\n    }\n}\n",
  "sourcePath": "D:\\Workspace\\Arteon\\arteon-contracts\\node_modules\\@openzeppelin\\contracts\\token\\ERC721\\utils\\ERC721Holder.sol",
  "compiler": {
    "name": "solc",
    "version": "0.8.0+commit.c7dfd78e.Emscripten.clang"
  },
  "schemaVersion": "3.3.4",
  "updatedAt": "2021-06-11T17:32:54.018Z",
  "devdoc": {
    "details": "Implementation of the {IERC721Receiver} interface. Accepts all token transfers. Make sure the contract is able to use its token with {IERC721-safeTransferFrom}, {IERC721-approve} or {IERC721-setApprovalForAll}.",
    "kind": "dev",
    "methods": {
      "onERC721Received(address,address,uint256,bytes)": {
        "details": "See {IERC721Receiver-onERC721Received}. Always returns `IERC721Receiver.onERC721Received.selector`."
      }
    },
    "version": 1
  },
  "userdoc": {
    "kind": "user",
    "methods": {},
    "version": 1
  }
}