{
  "contractName": "Arteon",
  "abi": [
    {
      "inputs": [
        {
          "internalType": "string",
          "name": "name_",
          "type": "string"
        },
        {
          "internalType": "string",
          "name": "symbol_",
          "type": "string"
        }
      ],
      "stateMutability": "nonpayable",
      "type": "constructor"
    },
    {
      "anonymous": false,
      "inputs": [
        {
          "indexed": true,
          "internalType": "address",
          "name": "owner",
          "type": "address"
        },
        {
          "indexed": true,
          "internalType": "address",
          "name": "spender",
          "type": "address"
        },
        {
          "indexed": false,
          "internalType": "uint256",
          "name": "value",
          "type": "uint256"
        }
      ],
      "name": "Approval",
      "type": "event"
    },
    {
      "anonymous": false,
      "inputs": [
        {
          "indexed": true,
          "internalType": "address",
          "name": "from",
          "type": "address"
        },
        {
          "indexed": true,
          "internalType": "address",
          "name": "to",
          "type": "address"
        },
        {
          "indexed": false,
          "internalType": "uint256",
          "name": "value",
          "type": "uint256"
        }
      ],
      "name": "Transfer",
      "type": "event"
    },
    {
      "inputs": [],
      "name": "governance",
      "outputs": [
        {
          "internalType": "address",
          "name": "",
          "type": "address"
        }
      ],
      "stateMutability": "view",
      "type": "function",
      "constant": true
    },
    {
      "inputs": [
        {
          "internalType": "address",
          "name": "",
          "type": "address"
        }
      ],
      "name": "minters",
      "outputs": [
        {
          "internalType": "bool",
          "name": "",
          "type": "bool"
        }
      ],
      "stateMutability": "view",
      "type": "function",
      "constant": true
    },
    {
      "inputs": [],
      "name": "percentSettings",
      "outputs": [
        {
          "internalType": "uint256",
          "name": "",
          "type": "uint256"
        }
      ],
      "stateMutability": "view",
      "type": "function",
      "constant": true
    },
    {
      "inputs": [],
      "name": "name",
      "outputs": [
        {
          "internalType": "string",
          "name": "",
          "type": "string"
        }
      ],
      "stateMutability": "view",
      "type": "function",
      "constant": true
    },
    {
      "inputs": [],
      "name": "symbol",
      "outputs": [
        {
          "internalType": "string",
          "name": "",
          "type": "string"
        }
      ],
      "stateMutability": "view",
      "type": "function",
      "constant": true
    },
    {
      "inputs": [],
      "name": "decimals",
      "outputs": [
        {
          "internalType": "uint8",
          "name": "",
          "type": "uint8"
        }
      ],
      "stateMutability": "view",
      "type": "function",
      "constant": true
    },
    {
      "inputs": [],
      "name": "totalSupply",
      "outputs": [
        {
          "internalType": "uint256",
          "name": "",
          "type": "uint256"
        }
      ],
      "stateMutability": "view",
      "type": "function",
      "constant": true
    },
    {
      "inputs": [
        {
          "internalType": "address",
          "name": "account",
          "type": "address"
        }
      ],
      "name": "balanceOf",
      "outputs": [
        {
          "internalType": "uint256",
          "name": "",
          "type": "uint256"
        }
      ],
      "stateMutability": "view",
      "type": "function",
      "constant": true
    },
    {
      "inputs": [
        {
          "internalType": "address",
          "name": "recipient",
          "type": "address"
        },
        {
          "internalType": "uint256",
          "name": "amount",
          "type": "uint256"
        }
      ],
      "name": "transfer",
      "outputs": [
        {
          "internalType": "bool",
          "name": "",
          "type": "bool"
        }
      ],
      "stateMutability": "nonpayable",
      "type": "function"
    },
    {
      "inputs": [
        {
          "internalType": "address[]",
          "name": "receivers",
          "type": "address[]"
        },
        {
          "internalType": "uint256[]",
          "name": "amounts",
          "type": "uint256[]"
        }
      ],
      "name": "multiTransfer",
      "outputs": [],
      "stateMutability": "nonpayable",
      "type": "function"
    },
    {
      "inputs": [
        {
          "internalType": "address",
          "name": "owner",
          "type": "address"
        },
        {
          "internalType": "address",
          "name": "spender",
          "type": "address"
        }
      ],
      "name": "allowance",
      "outputs": [
        {
          "internalType": "uint256",
          "name": "",
          "type": "uint256"
        }
      ],
      "stateMutability": "view",
      "type": "function",
      "constant": true
    },
    {
      "inputs": [
        {
          "internalType": "uint256",
          "name": "value",
          "type": "uint256"
        }
      ],
      "name": "burnPercentage",
      "outputs": [
        {
          "internalType": "uint256",
          "name": "",
          "type": "uint256"
        }
      ],
      "stateMutability": "view",
      "type": "function",
      "constant": true
    },
    {
      "inputs": [
        {
          "internalType": "address",
          "name": "spender",
          "type": "address"
        },
        {
          "internalType": "uint256",
          "name": "amount",
          "type": "uint256"
        }
      ],
      "name": "approve",
      "outputs": [
        {
          "internalType": "bool",
          "name": "",
          "type": "bool"
        }
      ],
      "stateMutability": "nonpayable",
      "type": "function"
    },
    {
      "inputs": [
        {
          "internalType": "address",
          "name": "sender",
          "type": "address"
        },
        {
          "internalType": "address",
          "name": "recipient",
          "type": "address"
        },
        {
          "internalType": "uint256",
          "name": "amount",
          "type": "uint256"
        }
      ],
      "name": "transferFrom",
      "outputs": [
        {
          "internalType": "bool",
          "name": "",
          "type": "bool"
        }
      ],
      "stateMutability": "nonpayable",
      "type": "function"
    },
    {
      "inputs": [
        {
          "internalType": "address",
          "name": "spender",
          "type": "address"
        },
        {
          "internalType": "uint256",
          "name": "addedValue",
          "type": "uint256"
        }
      ],
      "name": "increaseAllowance",
      "outputs": [
        {
          "internalType": "bool",
          "name": "",
          "type": "bool"
        }
      ],
      "stateMutability": "nonpayable",
      "type": "function"
    },
    {
      "inputs": [
        {
          "internalType": "address",
          "name": "spender",
          "type": "address"
        },
        {
          "internalType": "uint256",
          "name": "subtractedValue",
          "type": "uint256"
        }
      ],
      "name": "decreaseAllowance",
      "outputs": [
        {
          "internalType": "bool",
          "name": "",
          "type": "bool"
        }
      ],
      "stateMutability": "nonpayable",
      "type": "function"
    },
    {
      "inputs": [
        {
          "internalType": "address",
          "name": "account",
          "type": "address"
        },
        {
          "internalType": "uint256",
          "name": "amount",
          "type": "uint256"
        }
      ],
      "name": "mint",
      "outputs": [],
      "stateMutability": "nonpayable",
      "type": "function"
    },
    {
      "inputs": [
        {
          "internalType": "uint256",
          "name": "amount",
          "type": "uint256"
        }
      ],
      "name": "burn",
      "outputs": [],
      "stateMutability": "nonpayable",
      "type": "function"
    },
    {
      "inputs": [
        {
          "internalType": "address",
          "name": "account",
          "type": "address"
        },
        {
          "internalType": "uint256",
          "name": "amount",
          "type": "uint256"
        }
      ],
      "name": "burnFrom",
      "outputs": [],
      "stateMutability": "nonpayable",
      "type": "function"
    },
    {
      "inputs": [
        {
          "internalType": "address",
          "name": "_governance",
          "type": "address"
        }
      ],
      "name": "setGovernance",
      "outputs": [],
      "stateMutability": "nonpayable",
      "type": "function"
    },
    {
      "inputs": [
        {
          "internalType": "address",
          "name": "_minter",
          "type": "address"
        }
      ],
      "name": "addMinter",
      "outputs": [],
      "stateMutability": "nonpayable",
      "type": "function"
    },
    {
      "inputs": [
        {
          "internalType": "address",
          "name": "_minter",
          "type": "address"
        }
      ],
      "name": "removeMinter",
      "outputs": [],
      "stateMutability": "nonpayable",
      "type": "function"
    }
  ],
  "bytecode": "0x608060405260016006553480156200001657600080fd5b5060405162001a9138038062001a918339810160408190526200003991620001d0565b600280546001600160a01b031916331790558151620000609060009060208501906200007f565b508051620000769060019060208401906200007f565b5050506200028a565b8280546200008d9062000237565b90600052602060002090601f016020900481019282620000b15760008555620000fc565b82601f10620000cc57805160ff1916838001178555620000fc565b82800160010185558215620000fc579182015b82811115620000fc578251825591602001919060010190620000df565b506200010a9291506200010e565b5090565b5b808211156200010a57600081556001016200010f565b600082601f83011262000136578081fd5b81516001600160401b038082111562000153576200015362000274565b6040516020601f8401601f19168201810183811183821017156200017b576200017b62000274565b604052838252858401810187101562000192578485fd5b8492505b83831015620001b5578583018101518284018201529182019162000196565b83831115620001c657848185840101525b5095945050505050565b60008060408385031215620001e3578182fd5b82516001600160401b0380821115620001fa578384fd5b620002088683870162000125565b935060208501519150808211156200021e578283fd5b506200022d8582860162000125565b9150509250929050565b6002810460018216806200024c57607f821691505b602082108114156200026e57634e487b7160e01b600052602260045260246000fd5b50919050565b634e487b7160e01b600052604160045260246000fd5b6117f7806200029a6000396000f3fe608060405234801561001057600080fd5b50600436106101825760003560e01c806342966c68116100d8578063983b2d561161008c578063ab033ea911610066578063ab033ea9146102fa578063dd62ed3e1461030d578063f46eccc41461032057610182565b8063983b2d56146102c1578063a457c2d7146102d4578063a9059cbb146102e757610182565b806370a08231116100bd57806370a082311461029357806379cc6790146102a657806395d89b41146102b957610182565b806342966c681461026b5780635aa6e6751461027e57610182565b806323b872dd1161013a5780633950935111610114578063395093511461023d5780633bee96bb1461025057806340c10f191461025857610182565b806323b872dd146102025780633092afd514610215578063313ce5671461022857610182565b8063095ea7b31161016b578063095ea7b3146101c557806318160ddd146101e55780631e89d545146101ed57610182565b806305114d701461018757806306fdde03146101b0575b600080fd5b61019a610195366004611314565b610333565b6040516101a79190611585565b60405180910390f35b6101b861039e565b6040516101a79190611358565b6101d86101d336600461122d565b610430565b6040516101a7919061134d565b61019a61044d565b6102006101fb366004611256565b610453565b005b6101d86102103660046111f2565b610501565b6102006102233660046111a6565b610789565b61023061082f565b6040516101a7919061158e565b6101d861024b36600461122d565b610834565b61019a610894565b61020061026636600461122d565b61089a565b610200610279366004611314565b6108f1565b6102866108fe565b6040516101a7919061132c565b61019a6102a13660046111a6565b61091a565b6102006102b436600461122d565b610942565b6101b86109f5565b6102006102cf3660046111a6565b610a04565b6101d86102e236600461122d565b610aa4565b6101d86102f536600461122d565b610b19565b6102006103083660046111a6565b610c94565b61019a61031b3660046111c0565b610d2c565b6101d861032e3660046111a6565b610d64565b60008061034283600654610d79565b90506000610351826001610d8c565b9050600061036c61036483600654610d98565b600654610da4565b90506000610392620186a061038c60065485610da490919063ffffffff16565b90610d98565b9450505050505b919050565b6060600080546103ad9061168f565b80601f01602080910402602001604051908101604052809291908181526020018280546103d99061168f565b80156104265780601f106103fb57610100808354040283529160200191610426565b820191906000526020600020905b81548152906001019060200180831161040957829003601f168201915b5050505050905090565b600061044461043d610db0565b8484610db4565b50600192915050565b60075490565b60005b82518110156104fc576104e983828151811061049b577f4e487b7100000000000000000000000000000000000000000000000000000000600052603260045260246000fd5b60200260200101518383815181106104dc577f4e487b7100000000000000000000000000000000000000000000000000000000600052603260045260246000fd5b6020026020010151610b19565b50806104f4816116e3565b915050610456565b505050565b73ffffffffffffffffffffffffffffffffffffffff831660009081526004602052604081205482111561053357600080fd5b73ffffffffffffffffffffffffffffffffffffffff8416600090815260056020908152604080832033845290915290205482111561057057600080fd5b73ffffffffffffffffffffffffffffffffffffffff831661059057600080fd5b73ffffffffffffffffffffffffffffffffffffffff84166000908152600460205260409020546105c09083610d8c565b73ffffffffffffffffffffffffffffffffffffffff85166000908152600460205260408120919091556105f283610333565b905060006106008483610d8c565b73ffffffffffffffffffffffffffffffffffffffff86166000908152600460205260409020549091506106339082610d79565b73ffffffffffffffffffffffffffffffffffffffff86166000908152600460205260409020556007546106669083610d8c565b60075573ffffffffffffffffffffffffffffffffffffffff861660009081526005602090815260408083203384529091529020546106a49085610d8c565b73ffffffffffffffffffffffffffffffffffffffff80881660008181526005602090815260408083203384529091529081902093909355915190871691907fddf252ad1be2c89b69c2b068fc378daa952ba7f163c4a11628f55a4df523b3ef9061070f908590611585565b60405180910390a3600073ffffffffffffffffffffffffffffffffffffffff168673ffffffffffffffffffffffffffffffffffffffff167fddf252ad1be2c89b69c2b068fc378daa952ba7f163c4a11628f55a4df523b3ef846040516107759190611585565b60405180910390a350600195945050505050565b60025473ffffffffffffffffffffffffffffffffffffffff1633146107e3576040517f08c379a00000000000000000000000000000000000000000000000000000000081526004016107da90611400565b60405180910390fd5b73ffffffffffffffffffffffffffffffffffffffff16600090815260036020526040902080547fffffffffffffffffffffffffffffffffffffffffffffffffffffffffffffff00169055565b601290565b6000610444610841610db0565b8461088f8560056000610852610db0565b73ffffffffffffffffffffffffffffffffffffffff908116825260208083019390935260409182016000908120918c168152925290205490610d79565b610db4565b60065481565b3360009081526003602052604090205460ff166108e3576040517f08c379a00000000000000000000000000000000000000000000000000000000081526004016107da906113c9565b6108ed8282610ec3565b5050565b6108fb3382610fb8565b50565b60025473ffffffffffffffffffffffffffffffffffffffff1681565b73ffffffffffffffffffffffffffffffffffffffff1660009081526004602052604090205490565b73ffffffffffffffffffffffffffffffffffffffff8216600090815260056020908152604080832033845290915290205481111561097f57600080fd5b73ffffffffffffffffffffffffffffffffffffffff821660009081526005602090815260408083203384529091529020546109ba9082610d8c565b73ffffffffffffffffffffffffffffffffffffffff831660009081526005602090815260408083203384529091529020556108ed8282610fb8565b6060600180546103ad9061168f565b60025473ffffffffffffffffffffffffffffffffffffffff163314610a55576040517f08c379a00000000000000000000000000000000000000000000000000000000081526004016107da90611400565b73ffffffffffffffffffffffffffffffffffffffff16600090815260036020526040902080547fffffffffffffffffffffffffffffffffffffffffffffffffffffffffffffff00166001179055565b6000610444610ab1610db0565b8461088f8560405180606001604052806025815260200161179d6025913960056000610adb610db0565b73ffffffffffffffffffffffffffffffffffffffff908116825260208083019390935260409182016000908120918d168152925290205491906110d0565b33600090815260046020526040812054821115610b3557600080fd5b73ffffffffffffffffffffffffffffffffffffffff8316610b5557600080fd5b6000610b6083610333565b90506000610b6e8483610d8c565b33600090815260046020526040902054909150610b8b9085610d8c565b336000908152600460205260408082209290925573ffffffffffffffffffffffffffffffffffffffff871681522054610bc49082610d79565b73ffffffffffffffffffffffffffffffffffffffff8616600090815260046020526040902055600754610bf79083610d8c565b60075560405173ffffffffffffffffffffffffffffffffffffffff86169033907fddf252ad1be2c89b69c2b068fc378daa952ba7f163c4a11628f55a4df523b3ef90610c44908590611585565b60405180910390a360405160009033907fddf252ad1be2c89b69c2b068fc378daa952ba7f163c4a11628f55a4df523b3ef90610c81908690611585565b60405180910390a3506001949350505050565b60025473ffffffffffffffffffffffffffffffffffffffff163314610ce5576040517f08c379a00000000000000000000000000000000000000000000000000000000081526004016107da90611400565b600280547fffffffffffffffffffffffff00000000000000000000000000000000000000001673ffffffffffffffffffffffffffffffffffffffff92909216919091179055565b73ffffffffffffffffffffffffffffffffffffffff918216600090815260056020908152604080832093909416825291909152205490565b60036020526000908152604090205460ff1681565b6000610d8582846115ea565b9392505050565b6000610d858284611678565b6000610d858284611602565b6000610d85828461163b565b3390565b73ffffffffffffffffffffffffffffffffffffffff8316610e01576040517f08c379a00000000000000000000000000000000000000000000000000000000081526004016107da906114f1565b73ffffffffffffffffffffffffffffffffffffffff8216610e4e576040517f08c379a00000000000000000000000000000000000000000000000000000000081526004016107da90611437565b73ffffffffffffffffffffffffffffffffffffffff80841660008181526005602090815260408083209487168084529490915290819020849055517f8c5be1e5ebec7d5bd14f71427d1e84f3dd0314c0f7b2291e5b200ac8c7c3b92590610eb6908590611585565b60405180910390a3505050565b73ffffffffffffffffffffffffffffffffffffffff8216610f10576040517f08c379a00000000000000000000000000000000000000000000000000000000081526004016107da9061154e565b600754610f1d9082610d79565b60075573ffffffffffffffffffffffffffffffffffffffff8216600090815260046020526040902054610f509082610d79565b73ffffffffffffffffffffffffffffffffffffffff83166000818152600460205260408082209390935591519091907fddf252ad1be2c89b69c2b068fc378daa952ba7f163c4a11628f55a4df523b3ef90610fac908590611585565b60405180910390a35050565b73ffffffffffffffffffffffffffffffffffffffff8216611005576040517f08c379a00000000000000000000000000000000000000000000000000000000081526004016107da90611494565b61104f8160405180606001604052806022815260200161177b6022913973ffffffffffffffffffffffffffffffffffffffff851660009081526004602052604090205491906110d0565b73ffffffffffffffffffffffffffffffffffffffff83166000908152600460205260409020556007546110829082610d8c565b60075560405160009073ffffffffffffffffffffffffffffffffffffffff8416907fddf252ad1be2c89b69c2b068fc378daa952ba7f163c4a11628f55a4df523b3ef90610fac908590611585565b6000818484111561110e576040517f08c379a00000000000000000000000000000000000000000000000000000000081526004016107da9190611358565b505050900390565b803573ffffffffffffffffffffffffffffffffffffffff8116811461039957600080fd5b600082601f83011261114a578081fd5b8135602061115f61115a836115c6565b61159c565b828152818101908583018385028701840188101561117b578586fd5b855b858110156111995781358452928401929084019060010161117d565b5090979650505050505050565b6000602082840312156111b7578081fd5b610d8582611116565b600080604083850312156111d2578081fd5b6111db83611116565b91506111e960208401611116565b90509250929050565b600080600060608486031215611206578081fd5b61120f84611116565b925061121d60208501611116565b9150604084013590509250925092565b6000806040838503121561123f578182fd5b61124883611116565b946020939093013593505050565b60008060408385031215611268578182fd5b823567ffffffffffffffff8082111561127f578384fd5b818501915085601f830112611292578384fd5b813560206112a261115a836115c6565b82815281810190858301838502870184018b10156112be578889fd5b8896505b848710156112e7576112d381611116565b8352600196909601959183019183016112c2565b50965050860135925050808211156112fd578283fd5b5061130a8582860161113a565b9150509250929050565b600060208284031215611325578081fd5b5035919050565b73ffffffffffffffffffffffffffffffffffffffff91909116815260200190565b901515815260200190565b6000602080835283518082850152825b8181101561138457858101830151858201604001528201611368565b818111156113955783604083870101525b50601f017fffffffffffffffffffffffffffffffffffffffffffffffffffffffffffffffe016929092016040019392505050565b60208082526007908201527f216d696e74657200000000000000000000000000000000000000000000000000604082015260600190565b6020808252600b908201527f21676f7665726e616e6365000000000000000000000000000000000000000000604082015260600190565b60208082526022908201527f45524332303a20617070726f766520746f20746865207a65726f20616464726560408201527f7373000000000000000000000000000000000000000000000000000000000000606082015260800190565b60208082526021908201527f45524332303a206275726e2066726f6d20746865207a65726f2061646472657360408201527f7300000000000000000000000000000000000000000000000000000000000000606082015260800190565b60208082526024908201527f45524332303a20617070726f76652066726f6d20746865207a65726f2061646460408201527f7265737300000000000000000000000000000000000000000000000000000000606082015260800190565b6020808252601f908201527f45524332303a206d696e7420746f20746865207a65726f206164647265737300604082015260600190565b90815260200190565b60ff91909116815260200190565b60405181810167ffffffffffffffff811182821017156115be576115be61174b565b604052919050565b600067ffffffffffffffff8211156115e0576115e061174b565b5060209081020190565b600082198211156115fd576115fd61171c565b500190565b600082611636577f4e487b710000000000000000000000000000000000000000000000000000000081526012600452602481fd5b500490565b6000817fffffffffffffffffffffffffffffffffffffffffffffffffffffffffffffffff04831182151516156116735761167361171c565b500290565b60008282101561168a5761168a61171c565b500390565b6002810460018216806116a357607f821691505b602082108114156116dd577f4e487b7100000000000000000000000000000000000000000000000000000000600052602260045260246000fd5b50919050565b60007fffffffffffffffffffffffffffffffffffffffffffffffffffffffffffffffff8214156117155761171561171c565b5060010190565b7f4e487b7100000000000000000000000000000000000000000000000000000000600052601160045260246000fd5b7f4e487b7100000000000000000000000000000000000000000000000000000000600052604160045260246000fdfe45524332303a206275726e20616d6f756e7420657863656564732062616c616e636545524332303a2064656372656173656420616c6c6f77616e63652062656c6f77207a65726fa2646970667358221220dcbecb06fa711e1165e606fe084928ef403e83bc31dc36b265ce70ef8e04585364736f6c63430008000033",
  "immutableReferences": {},
  "source": "// SPDX-License-Identifier: MIT\r\n\r\npragma solidity ^0.8.0;\r\nimport './../../node_modules/@openzeppelin/contracts/token/ERC20/utils/SafeERC20.sol';\r\nimport './../../node_modules/@openzeppelin/contracts/token/ERC20/ERC20.sol';\r\nimport './../../node_modules/@openzeppelin/contracts/token/ERC20/extensions/IERC20Metadata.sol';\r\nimport './../../node_modules/@openzeppelin/contracts/utils/Address.sol';\r\nimport './../../node_modules/@openzeppelin/contracts/utils/Context.sol';\r\nimport './../../node_modules/@openzeppelin/contracts/utils/math/SafeMath.sol';\r\nimport './../../node_modules/@openzeppelin/contracts/utils/math/Math.sol';\r\n\r\ncontract Arteon is Context, IERC20Metadata {\r\n    using SafeERC20 for IERC20;\r\n    using Address for address;\r\n    using SafeMath for uint;\r\n    using SafeMath for uint256;\r\n\r\n    string private _name;\r\n    string private _symbol;\r\n\r\n    address public governance;\r\n    mapping (address => bool) public minters;\r\n\r\n    mapping (address => uint) private _balances;\r\n    mapping (address => mapping (address => uint)) private _allowances;\r\n\r\n    uint256 public percentSettings = 1; // = 0.001%\r\n    uint private _totalSupply;\r\n\r\n    constructor (string memory name_, string memory symbol_) {\r\n      governance = msg.sender;\r\n      _name = name_;\r\n      _symbol = symbol_;\r\n    }\r\n\r\n    function name() public view virtual override returns (string memory) {\r\n      return _name;\r\n    }\r\n    function symbol() public view virtual override returns (string memory) {\r\n      return _symbol;\r\n    }\r\n    function decimals() public view virtual override returns (uint8) {\r\n      return 18;\r\n    }\r\n\r\n    function totalSupply() public view virtual override returns (uint) {\r\n        return _totalSupply;\r\n    }\r\n    function balanceOf(address account) public view virtual override returns (uint) {\r\n        return _balances[account];\r\n    }\r\n    function transfer(address recipient, uint amount) public override returns (bool) {\r\n        require(amount <= _balances[msg.sender]);\r\n        require(recipient != address(0));\r\n\r\n        uint256 tokensToBurn = burnPercentage(amount);\r\n        uint256 tokensToTransfer = amount.sub(tokensToBurn);\r\n\r\n        _balances[msg.sender] = _balances[msg.sender].sub(amount);\r\n        _balances[recipient] = _balances[recipient].add(tokensToTransfer);\r\n\r\n        _totalSupply = _totalSupply.sub(tokensToBurn);\r\n\r\n        emit Transfer(msg.sender, recipient, tokensToTransfer);\r\n        emit Transfer(msg.sender, address(0), tokensToBurn);\r\n        return true;\r\n    }\r\n    function multiTransfer(address[] memory receivers, uint256[] memory amounts) public {\r\n        for (uint256 i = 0; i < receivers.length; i++) {\r\n        transfer(receivers[i], amounts[i]);\r\n    }\r\n  }\r\n    function allowance(address owner, address spender) public view virtual override returns (uint) {\r\n        return _allowances[owner][spender];\r\n    }\r\n    function burnPercentage(uint256 value) public view returns (uint256)  {\r\n      uint256 c = SafeMath.add(value, percentSettings);\r\n      uint256 d = SafeMath.sub(c,1);\r\n\r\n      uint256 roundValue = SafeMath.mul(SafeMath.div(d, percentSettings), percentSettings);\r\n\r\n      uint256 percentValue = roundValue.mul(percentSettings).div(100000); // = 0.001%\r\n      return percentValue;\r\n   }\r\n    function approve(address spender, uint amount) public override returns (bool) {\r\n        _approve(_msgSender(), spender, amount);\r\n        return true;\r\n    }\r\n    function transferFrom(address sender, address recipient, uint amount) public override returns (bool) {\r\n        require(amount <= _balances[sender]);\r\n        require(amount <= _allowances[sender][msg.sender]);\r\n        require(recipient != address(0));\r\n\r\n        _balances[sender] = _balances[sender].sub(amount);\r\n\r\n        uint256 tokensToBurn = burnPercentage(amount);\r\n        uint256 tokensToTransfer = amount.sub(tokensToBurn);\r\n\r\n        _balances[recipient] = _balances[recipient].add(tokensToTransfer);\r\n        _totalSupply = _totalSupply.sub(tokensToBurn);\r\n\r\n        _allowances[sender][msg.sender] = _allowances[sender][msg.sender].sub(amount);\r\n\r\n        emit Transfer(sender, recipient, tokensToTransfer);\r\n        emit Transfer(sender, address(0), tokensToBurn);\r\n\r\n        return true;\r\n    }\r\n    function increaseAllowance(address spender, uint addedValue) public returns (bool) {\r\n        _approve(_msgSender(), spender, _allowances[_msgSender()][spender].add(addedValue));\r\n        return true;\r\n    }\r\n    function decreaseAllowance(address spender, uint subtractedValue) public returns (bool) {\r\n        _approve(_msgSender(), spender, _allowances[_msgSender()][spender].sub(subtractedValue, \"ERC20: decreased allowance below zero\"));\r\n        return true;\r\n    }\r\n    function _transfer(address sender, address recipient, uint amount) internal {\r\n        require(sender != address(0), \"ERC20: transfer from the zero address\");\r\n        require(recipient != address(0), \"ERC20: transfer to the zero address\");\r\n\r\n        _balances[sender] = _balances[sender].sub(amount, \"ERC20: transfer amount exceeds balance\");\r\n        _balances[recipient] = _balances[recipient].add(amount);\r\n        emit Transfer(sender, recipient, amount);\r\n    }\r\n    function _mint(address account, uint amount) internal {\r\n        require(account != address(0), \"ERC20: mint to the zero address\");\r\n\r\n        _totalSupply = _totalSupply.add(amount);\r\n        _balances[account] = _balances[account].add(amount);\r\n        emit Transfer(address(0), account, amount);\r\n    }\r\n    function _burn(address account, uint amount) internal {\r\n        require(account != address(0), \"ERC20: burn from the zero address\");\r\n\r\n        _balances[account] = _balances[account].sub(amount, \"ERC20: burn amount exceeds balance\");\r\n        _totalSupply = _totalSupply.sub(amount);\r\n        emit Transfer(account, address(0), amount);\r\n    }\r\n    function _approve(address owner, address spender, uint amount) internal {\r\n        require(owner != address(0), \"ERC20: approve from the zero address\");\r\n        require(spender != address(0), \"ERC20: approve to the zero address\");\r\n\r\n        _allowances[owner][spender] = amount;\r\n        emit Approval(owner, spender, amount);\r\n    }\r\n\r\n    function mint(address account, uint256 amount) public {\r\n        require(minters[msg.sender], \"!minter\");\r\n        _mint(account, amount);\r\n    }\r\n\r\n    function burn(uint256 amount) public {\r\n        _burn(msg.sender, amount);\r\n    }\r\n\r\n      function burnFrom(address account, uint256 amount) external {\r\n    require(amount <= _allowances[account][msg.sender]);\r\n    _allowances[account][msg.sender] = _allowances[account][msg.sender].sub(amount);\r\n    _burn(account, amount);\r\n  }\r\n\r\n    function setGovernance(address _governance) public {\r\n        require(msg.sender == governance, \"!governance\");\r\n        governance = _governance;\r\n    }\r\n\r\n    function addMinter(address _minter) public {\r\n        require(msg.sender == governance, \"!governance\");\r\n        minters[_minter] = true;\r\n    }\r\n\r\n    function removeMinter(address _minter) public {\r\n        require(msg.sender == governance, \"!governance\");\r\n        minters[_minter] = false;\r\n    }\r\n}\r\n",
  "sourcePath": "D:/Workspace/Arteon/arteon-contracts/token/contracts/ARTEON.sol",
  "compiler": {
    "name": "solc",
    "version": "0.8.0+commit.c7dfd78e.Emscripten.clang"
  },
  "schemaVersion": "3.3.4",
  "updatedAt": "2021-06-11T09:47:54.940Z",
  "networkType": "ethereum",
  "devdoc": {
    "kind": "dev",
    "methods": {
      "allowance(address,address)": {
        "details": "Returns the remaining number of tokens that `spender` will be allowed to spend on behalf of `owner` through {transferFrom}. This is zero by default. This value changes when {approve} or {transferFrom} are called."
      },
      "approve(address,uint256)": {
        "details": "Sets `amount` as the allowance of `spender` over the caller's tokens. Returns a boolean value indicating whether the operation succeeded. IMPORTANT: Beware that changing an allowance with this method brings the risk that someone may use both the old and the new allowance by unfortunate transaction ordering. One possible solution to mitigate this race condition is to first reduce the spender's allowance to 0 and set the desired value afterwards: https://github.com/ethereum/EIPs/issues/20#issuecomment-263524729 Emits an {Approval} event."
      },
      "balanceOf(address)": {
        "details": "Returns the amount of tokens owned by `account`."
      },
      "decimals()": {
        "details": "Returns the decimals places of the token."
      },
      "name()": {
        "details": "Returns the name of the token."
      },
      "symbol()": {
        "details": "Returns the symbol of the token."
      },
      "totalSupply()": {
        "details": "Returns the amount of tokens in existence."
      },
      "transfer(address,uint256)": {
        "details": "Moves `amount` tokens from the caller's account to `recipient`. Returns a boolean value indicating whether the operation succeeded. Emits a {Transfer} event."
      },
      "transferFrom(address,address,uint256)": {
        "details": "Moves `amount` tokens from `sender` to `recipient` using the allowance mechanism. `amount` is then deducted from the caller's allowance. Returns a boolean value indicating whether the operation succeeded. Emits a {Transfer} event."
      }
    },
    "version": 1
  },
  "userdoc": {
    "kind": "user",
    "methods": {},
    "version": 1
  }
}