{
  "contractName": "ArteonExchange",
  "abi": [
    {
      "inputs": [
        {
          "internalType": "address",
          "name": "token",
          "type": "address"
        }
      ],
      "stateMutability": "nonpayable",
      "type": "constructor"
    },
    {
      "anonymous": false,
      "inputs": [
        {
          "indexed": false,
          "internalType": "address",
          "name": "gpu",
          "type": "address"
        },
        {
          "indexed": false,
          "internalType": "uint256",
          "name": "tokenId",
          "type": "uint256"
        },
        {
          "indexed": false,
          "internalType": "address",
          "name": "listing",
          "type": "address"
        },
        {
          "indexed": false,
          "internalType": "address",
          "name": "owner",
          "type": "address"
        },
        {
          "indexed": false,
          "internalType": "uint256",
          "name": "price",
          "type": "uint256"
        }
      ],
      "name": "Buy",
      "type": "event"
    },
    {
      "anonymous": false,
      "inputs": [
        {
          "indexed": false,
          "internalType": "address",
          "name": "gpu",
          "type": "address"
        },
        {
          "indexed": false,
          "internalType": "uint256",
          "name": "tokenId",
          "type": "uint256"
        }
      ],
      "name": "Delist",
      "type": "event"
    },
    {
      "anonymous": false,
      "inputs": [
        {
          "indexed": false,
          "internalType": "address",
          "name": "ArteonGPU",
          "type": "address"
        },
        {
          "indexed": false,
          "internalType": "uint256",
          "name": "tokenId",
          "type": "uint256"
        },
        {
          "indexed": false,
          "internalType": "address",
          "name": "listing",
          "type": "address"
        },
        {
          "indexed": false,
          "internalType": "uint256",
          "name": "",
          "type": "uint256"
        },
        {
          "indexed": false,
          "internalType": "uint256",
          "name": "price",
          "type": "uint256"
        }
      ],
      "name": "ListingCreated",
      "type": "event"
    },
    {
      "anonymous": false,
      "inputs": [
        {
          "indexed": true,
          "internalType": "address",
          "name": "previousOwner",
          "type": "address"
        },
        {
          "indexed": true,
          "internalType": "address",
          "name": "newOwner",
          "type": "address"
        }
      ],
      "name": "OwnershipTransferred",
      "type": "event"
    },
    {
      "anonymous": false,
      "inputs": [
        {
          "indexed": false,
          "internalType": "address",
          "name": "account",
          "type": "address"
        }
      ],
      "name": "Paused",
      "type": "event"
    },
    {
      "anonymous": false,
      "inputs": [
        {
          "indexed": false,
          "internalType": "address",
          "name": "account",
          "type": "address"
        }
      ],
      "name": "Unpaused",
      "type": "event"
    },
    {
      "inputs": [],
      "name": "ARTEON_TOKEN",
      "outputs": [
        {
          "internalType": "address",
          "name": "",
          "type": "address"
        }
      ],
      "stateMutability": "view",
      "type": "function",
      "constant": true
    },
    {
      "inputs": [
        {
          "internalType": "address",
          "name": "",
          "type": "address"
        },
        {
          "internalType": "uint256",
          "name": "",
          "type": "uint256"
        }
      ],
      "name": "getListing",
      "outputs": [
        {
          "internalType": "address",
          "name": "",
          "type": "address"
        }
      ],
      "stateMutability": "view",
      "type": "function",
      "constant": true
    },
    {
      "inputs": [
        {
          "internalType": "uint256",
          "name": "",
          "type": "uint256"
        }
      ],
      "name": "listings",
      "outputs": [
        {
          "internalType": "address",
          "name": "",
          "type": "address"
        }
      ],
      "stateMutability": "view",
      "type": "function",
      "constant": true
    },
    {
      "inputs": [
        {
          "internalType": "address",
          "name": "",
          "type": "address"
        }
      ],
      "name": "lists",
      "outputs": [
        {
          "internalType": "address",
          "name": "owner",
          "type": "address"
        },
        {
          "internalType": "address",
          "name": "gpu",
          "type": "address"
        },
        {
          "internalType": "uint256",
          "name": "tokenId",
          "type": "uint256"
        },
        {
          "internalType": "uint256",
          "name": "price",
          "type": "uint256"
        },
        {
          "internalType": "uint256",
          "name": "index",
          "type": "uint256"
        }
      ],
      "stateMutability": "view",
      "type": "function",
      "constant": true
    },
    {
      "inputs": [],
      "name": "owner",
      "outputs": [
        {
          "internalType": "address",
          "name": "",
          "type": "address"
        }
      ],
      "stateMutability": "view",
      "type": "function",
      "constant": true
    },
    {
      "inputs": [],
      "name": "paused",
      "outputs": [
        {
          "internalType": "bool",
          "name": "",
          "type": "bool"
        }
      ],
      "stateMutability": "view",
      "type": "function",
      "constant": true
    },
    {
      "inputs": [],
      "name": "renounceOwnership",
      "outputs": [],
      "stateMutability": "nonpayable",
      "type": "function"
    },
    {
      "inputs": [
        {
          "internalType": "address",
          "name": "",
          "type": "address"
        },
        {
          "internalType": "uint256",
          "name": "",
          "type": "uint256"
        }
      ],
      "name": "tokenIds",
      "outputs": [
        {
          "internalType": "uint256",
          "name": "",
          "type": "uint256"
        }
      ],
      "stateMutability": "view",
      "type": "function",
      "constant": true
    },
    {
      "inputs": [
        {
          "internalType": "address",
          "name": "newOwner",
          "type": "address"
        }
      ],
      "name": "transferOwnership",
      "outputs": [],
      "stateMutability": "nonpayable",
      "type": "function"
    },
    {
      "inputs": [
        {
          "internalType": "address",
          "name": "gpu",
          "type": "address"
        }
      ],
      "name": "tokenIdsLength",
      "outputs": [
        {
          "internalType": "uint256",
          "name": "",
          "type": "uint256"
        }
      ],
      "stateMutability": "view",
      "type": "function",
      "constant": true
    },
    {
      "inputs": [],
      "name": "listingLength",
      "outputs": [
        {
          "internalType": "uint256",
          "name": "",
          "type": "uint256"
        }
      ],
      "stateMutability": "view",
      "type": "function",
      "constant": true
    },
    {
      "inputs": [
        {
          "internalType": "address",
          "name": "gpu",
          "type": "address"
        },
        {
          "internalType": "uint256",
          "name": "tokenId",
          "type": "uint256"
        },
        {
          "internalType": "uint256",
          "name": "price",
          "type": "uint256"
        }
      ],
      "name": "list",
      "outputs": [
        {
          "internalType": "address",
          "name": "listing",
          "type": "address"
        }
      ],
      "stateMutability": "nonpayable",
      "type": "function"
    },
    {
      "inputs": [
        {
          "internalType": "address",
          "name": "gpu",
          "type": "address"
        },
        {
          "internalType": "uint256",
          "name": "tokenId",
          "type": "uint256"
        }
      ],
      "name": "forceDelist",
      "outputs": [],
      "stateMutability": "nonpayable",
      "type": "function"
    },
    {
      "inputs": [
        {
          "internalType": "address",
          "name": "gpu",
          "type": "address"
        },
        {
          "internalType": "uint256",
          "name": "tokenId",
          "type": "uint256"
        }
      ],
      "name": "delist",
      "outputs": [],
      "stateMutability": "nonpayable",
      "type": "function"
    },
    {
      "inputs": [
        {
          "internalType": "address",
          "name": "gpu",
          "type": "address"
        },
        {
          "internalType": "uint256",
          "name": "tokenId",
          "type": "uint256"
        }
      ],
      "name": "buy",
      "outputs": [],
      "stateMutability": "nonpayable",
      "type": "function"
    },
    {
      "inputs": [
        {
          "internalType": "address",
          "name": "gpu",
          "type": "address"
        },
        {
          "internalType": "uint256",
          "name": "tokenId",
          "type": "uint256"
        },
        {
          "internalType": "uint256",
          "name": "price",
          "type": "uint256"
        }
      ],
      "name": "setPrice",
      "outputs": [],
      "stateMutability": "nonpayable",
      "type": "function"
    },
    {
      "inputs": [
        {
          "internalType": "address",
          "name": "gpu",
          "type": "address"
        },
        {
          "internalType": "uint256",
          "name": "tokenId",
          "type": "uint256"
        }
      ],
      "name": "getPrice",
      "outputs": [
        {
          "internalType": "uint256",
          "name": "price",
          "type": "uint256"
        }
      ],
      "stateMutability": "nonpayable",
      "type": "function"
    },
    {
      "inputs": [],
      "name": "pause",
      "outputs": [],
      "stateMutability": "nonpayable",
      "type": "function"
    }
  ],
  "bytecode": "0x60806040523480156200001157600080fd5b5060405162002fe538038062002fe58339810160408190526200003491620000c1565b600062000040620000bd565b600080546001600160a01b0319166001600160a01b0383169081178255604051929350917f8be0079c531659141344cd1fd0a4f28419497f9722a3daafe3b4186f6b6457e0908290a3506000805460ff60a01b19169055600180546001600160a01b0319166001600160a01b0392909216919091179055620000f1565b3390565b600060208284031215620000d3578081fd5b81516001600160a01b0381168114620000ea578182fd5b9392505050565b612ee480620001016000396000f3fe608060405234801561001057600080fd5b50600436106101365760003560e01c80638da5cb5b116100b2578063ee52a62511610081578063f2119b8311610066578063f2119b8314610264578063f2fde38b14610277578063f9f680db1461028a57610136565b8063ee52a62514610249578063f074258e1461025157610136565b80638da5cb5b14610208578063cce7ec1314610210578063dda342bb14610223578063de74e57b1461023657610136565b80635201148e11610109578063715018a6116100ee578063715018a6146101d85780638456cb59146101e057806388700d1c146101e857610136565b80635201148e1461019f5780635c975abb146101c357610136565b80632df2982a1461013b5780633011e16a146101505780633de419e914610163578063449e815d1461018c575b600080fd5b61014e610149366004611a92565b610292565b005b61014e61015e366004611abd565b61038d565b610176610171366004611a92565b610534565b604051610183919061203e565b60405180910390f35b61017661019a366004611a92565b610565565b6101b26101ad366004611a5a565b61061f565b604051610183959493929190611be4565b6101cb610667565b6040516101839190611cc9565b61014e610688565b61014e61076a565b6101fb6101f6366004611a92565b610826565b6040516101839190611b92565b6101fb610859565b61014e61021e366004611a92565b610875565b6101fb610231366004611abd565b610c7e565b6101fb610244366004611b11565b610fa1565b610176610fd8565b61014e61025f366004611a92565b610fde565b610176610272366004611a5a565b611057565b61014e610285366004611a5a565b61107f565b6101fb6111cc565b73ffffffffffffffffffffffffffffffffffffffff8083166000908152600460209081526040808320858452909152902054839183911680610309576040517f08c379a000000000000000000000000000000000000000000000000000000000815260040161030090611d82565b60405180910390fd5b6103116111e8565b73ffffffffffffffffffffffffffffffffffffffff1661032f610859565b73ffffffffffffffffffffffffffffffffffffffff161461037c576040517f08c379a000000000000000000000000000000000000000000000000000000000815260040161030090611ee1565b61038685856111ec565b5050505050565b73ffffffffffffffffffffffffffffffffffffffff80841660009081526004602090815260408083208684529091529020548491849116806103fb576040517f08c379a000000000000000000000000000000000000000000000000000000000815260040161030090611d82565b6040517f6352211e000000000000000000000000000000000000000000000000000000008152339073ffffffffffffffffffffffffffffffffffffffff881690636352211e9061044f90899060040161203e565b60206040518083038186803b15801561046757600080fd5b505afa15801561047b573d6000803e3d6000fd5b505050506040513d601f19601f8201168201806040525081019061049f9190611a76565b73ffffffffffffffffffffffffffffffffffffffff16146104ec576040517f08c379a000000000000000000000000000000000000000000000000000000000815260040161030090611db9565b50505073ffffffffffffffffffffffffffffffffffffffff92831660009081526004602090815260408083209483529381528382205490941681526005909352912060030155565b6003602052816000526040600020818154811061055057600080fd5b90600052602060002001600091509150505481565b73ffffffffffffffffffffffffffffffffffffffff808316600090815260046020908152604080832085845290915281205490918491849116806105d5576040517f08c379a000000000000000000000000000000000000000000000000000000000815260040161030090611d82565b5050505073ffffffffffffffffffffffffffffffffffffffff9182166000908152600460209081526040808320938352928152828220549093168152600590925290206003015490565b6005602052600090815260409020805460018201546002830154600384015460049094015473ffffffffffffffffffffffffffffffffffffffff938416949390921692909185565b60005474010000000000000000000000000000000000000000900460ff1690565b6106906111e8565b73ffffffffffffffffffffffffffffffffffffffff166106ae610859565b73ffffffffffffffffffffffffffffffffffffffff16146106fb576040517f08c379a000000000000000000000000000000000000000000000000000000000815260040161030090611ee1565b6000805460405173ffffffffffffffffffffffffffffffffffffffff909116907f8be0079c531659141344cd1fd0a4f28419497f9722a3daafe3b4186f6b6457e0908390a3600080547fffffffffffffffffffffffff0000000000000000000000000000000000000000169055565b610772610667565b156107a9576040517f08c379a000000000000000000000000000000000000000000000000000000000815260040161030090611eaa565b6107b16111e8565b73ffffffffffffffffffffffffffffffffffffffff166107cf610859565b73ffffffffffffffffffffffffffffffffffffffff161461081c576040517f08c379a000000000000000000000000000000000000000000000000000000000815260040161030090611ee1565b6108246115c3565b565b600460209081526000928352604080842090915290825290205473ffffffffffffffffffffffffffffffffffffffff1681565b60005473ffffffffffffffffffffffffffffffffffffffff1690565b73ffffffffffffffffffffffffffffffffffffffff80831660009081526004602090815260408083208584529091529020548391839116806108e3576040517f08c379a000000000000000000000000000000000000000000000000000000000815260040161030090611d82565b73ffffffffffffffffffffffffffffffffffffffff808616600090815260046020818152604080842089855282528084205485168085526005909252928390208054600182015460029092015494517f6352211e000000000000000000000000000000000000000000000000000000008152929590811694911692636352211e9261096f92910161203e565b60206040518083038186803b15801561098757600080fd5b505afa15801561099b573d6000803e3d6000fd5b505050506040513d601f19601f820116820180604052508101906109bf9190611a76565b73ffffffffffffffffffffffffffffffffffffffff1614610a0c576040517f08c379a000000000000000000000000000000000000000000000000000000000815260040161030090611e4d565b6001546040517f70a0823100000000000000000000000000000000000000000000000000000000815260009173ffffffffffffffffffffffffffffffffffffffff16906370a0823190610a63903390600401611b92565b60206040518083038186803b158015610a7b57600080fd5b505afa158015610a8f573d6000803e3d6000fd5b505050506040513d601f19601f82011682018060405250810190610ab39190611b29565b73ffffffffffffffffffffffffffffffffffffffff8316600090815260056020526040902060030154909150811015610b18576040517f08c379a000000000000000000000000000000000000000000000000000000000815260040161030090611f4d565b60015473ffffffffffffffffffffffffffffffffffffffff83811660009081526005602052604090208054600390910154610b599383169233921690611681565b73ffffffffffffffffffffffffffffffffffffffff808316600090815260056020526040908190206001810154815460029092015492517f42842e0e000000000000000000000000000000000000000000000000000000008152908416936342842e0e93610bd09390911691339190600401611bb3565b600060405180830381600087803b158015610bea57600080fd5b505af1158015610bfe573d6000803e3d6000fd5b50505050610c0d87873361172a565b73ffffffffffffffffffffffffffffffffffffffff8216600090815260056020526040908190206003015490517f324dfaaac3975712513fc233f72fb1df65967a5a9fdbf3681d121bfd0339ebc991610c6d918a918a9187913391611c48565b60405180910390a150505050505050565b73ffffffffffffffffffffffffffffffffffffffff838116600090815260046020908152604080832086845290915281205490911615610cea576040517f08c379a000000000000000000000000000000000000000000000000000000000815260040161030090611f16565b6040517f6352211e000000000000000000000000000000000000000000000000000000008152339073ffffffffffffffffffffffffffffffffffffffff861690636352211e90610d3e90879060040161203e565b60206040518083038186803b158015610d5657600080fd5b505afa158015610d6a573d6000803e3d6000fd5b505050506040513d601f19601f82011682018060405250810190610d8e9190611a76565b73ffffffffffffffffffffffffffffffffffffffff1614610ddb576040517f08c379a000000000000000000000000000000000000000000000000000000000815260040161030090611db9565b600060405180602001610ded90611a4d565b6020820181038252601f19601f82011660405250905060008585604051602001610e18929190611b41565b604051602081830303815290604052805190602001209050808251602084016000f573ffffffffffffffffffffffffffffffffffffffff80881660008181526004602090815260408083208b8452825280832080549587167fffffffffffffffffffffffff0000000000000000000000000000000000000000968716811790915560028054600181810183557f405787fa12a823e0f2b7631cc41b3ba8828b3321ca811111fa75cd3aa3bb5ace9091018054891684179055868652600380865284872080548084018255908852868820018f9055928652600590945291909320805486163317815580830180549096169094179094559082018890559082018890559054919450610f2891612047565b73ffffffffffffffffffffffffffffffffffffffff8416600090815260056020526040908190206004019190915560025490517f81cc9d0dcc671d2335481cdaa5af1e25fc5cf004a309d6ab49ec443e0e97938091610f8f91899189918891908a90611c88565b60405180910390a150505b9392505050565b60028181548110610fb157600080fd5b60009182526020909120015473ffffffffffffffffffffffffffffffffffffffff16905081565b60025490565b73ffffffffffffffffffffffffffffffffffffffff808316600090815260046020908152604080832085845290915290205483918391168061104c576040517f08c379a000000000000000000000000000000000000000000000000000000000815260040161030090611d82565b61038685853361172a565b73ffffffffffffffffffffffffffffffffffffffff1660009081526003602052604090205490565b6110876111e8565b73ffffffffffffffffffffffffffffffffffffffff166110a5610859565b73ffffffffffffffffffffffffffffffffffffffff16146110f2576040517f08c379a000000000000000000000000000000000000000000000000000000000815260040161030090611ee1565b73ffffffffffffffffffffffffffffffffffffffff811661113f576040517f08c379a000000000000000000000000000000000000000000000000000000000815260040161030090611d25565b6000805460405173ffffffffffffffffffffffffffffffffffffffff808516939216917f8be0079c531659141344cd1fd0a4f28419497f9722a3daafe3b4186f6b6457e091a3600080547fffffffffffffffffffffffff00000000000000000000000000000000000000001673ffffffffffffffffffffffffffffffffffffffff92909216919091179055565b60015473ffffffffffffffffffffffffffffffffffffffff1681565b3390565b73ffffffffffffffffffffffffffffffffffffffff8083166000908152600460208181526040808420868552825280842054909416808452600590915292822001546002805491929161124190600190612047565b81548110611278577f4e487b7100000000000000000000000000000000000000000000000000000000600052603260045260246000fd5b600091825260208083209091015473ffffffffffffffffffffffffffffffffffffffff88811684526003909252604083208054929091169350906112be90600190612047565b815481106112f5577f4e487b7100000000000000000000000000000000000000000000000000000000600052603260045260246000fd5b90600052602060002001549050816002848154811061133d577f4e487b7100000000000000000000000000000000000000000000000000000000600052603260045260246000fd5b600091825260208083209190910180547fffffffffffffffffffffffff00000000000000000000000000000000000000001673ffffffffffffffffffffffffffffffffffffffff94851617905591881681526003909152604090208054829190859081106113d4577f4e487b7100000000000000000000000000000000000000000000000000000000600052603260045260246000fd5b600091825260208083209091019290925573ffffffffffffffffffffffffffffffffffffffff841681526005909152604090206004018390556002805480611445577f4e487b7100000000000000000000000000000000000000000000000000000000600052603160045260246000fd5b6000828152602080822083017fffffffffffffffffffffffffffffffffffffffffffffffffffffffffffffffff90810180547fffffffffffffffffffffffff000000000000000000000000000000000000000016905590920190925573ffffffffffffffffffffffffffffffffffffffff8816825260039052604090208054806114f8577f4e487b7100000000000000000000000000000000000000000000000000000000600052603160045260246000fd5b6000828152602080822083017fffffffffffffffffffffffffffffffffffffffffffffffffffffffffffffffff90810183905590920190925573ffffffffffffffffffffffffffffffffffffffff881682526004815260408083208884529091529081902080547fffffffffffffffffffffffff0000000000000000000000000000000000000000169055517f8fcc1d45240b67aa8f5859c01c295e240be99a9d5e4c11873bb82cf40be7533c906115b39088908890611c22565b60405180910390a1505050505050565b6115cb610667565b15611602576040517f08c379a000000000000000000000000000000000000000000000000000000000815260040161030090611eaa565b600080547fffffffffffffffffffffff00ffffffffffffffffffffffffffffffffffffffff16740100000000000000000000000000000000000000001790557f62e78cea01bee320cd4e420270b5ea74000d11b0c9f74754ebdbfc544b05a25861166a6111e8565b6040516116779190611b92565b60405180910390a1565b611724846323b872dd60e01b8585856040516024016116a293929190611bb3565b604080517fffffffffffffffffffffffffffffffffffffffffffffffffffffffffffffffe08184030181529190526020810180517bffffffffffffffffffffffffffffffffffffffffffffffffffffffff167fffffffff0000000000000000000000000000000000000000000000000000000090931692909217909152611826565b50505050565b8073ffffffffffffffffffffffffffffffffffffffff168373ffffffffffffffffffffffffffffffffffffffff16636352211e846040518263ffffffff1660e01b815260040161177a919061203e565b60206040518083038186803b15801561179257600080fd5b505afa1580156117a6573d6000803e3d6000fd5b505050506040513d601f19601f820116820180604052508101906117ca9190611a76565b73ffffffffffffffffffffffffffffffffffffffff1614611817576040517f08c379a000000000000000000000000000000000000000000000000000000000815260040161030090611db9565b61182183836111ec565b505050565b6000611888826040518060400160405280602081526020017f5361666545524332303a206c6f772d6c6576656c2063616c6c206661696c65648152508573ffffffffffffffffffffffffffffffffffffffff166118dc9092919063ffffffff16565b80519091501561182157808060200190518101906118a69190611af1565b611821576040517f08c379a000000000000000000000000000000000000000000000000000000000815260040161030090611fe1565b60606118eb84846000856118f3565b949350505050565b60608247101561192f576040517f08c379a000000000000000000000000000000000000000000000000000000000815260040161030090611df0565b611938856119f4565b61196e576040517f08c379a000000000000000000000000000000000000000000000000000000000815260040161030090611faa565b6000808673ffffffffffffffffffffffffffffffffffffffff1685876040516119979190611b76565b60006040518083038185875af1925050503d80600081146119d4576040519150601f19603f3d011682016040523d82523d6000602084013e6119d9565b606091505b50915091506119e98282866119fa565b979650505050505050565b3b151590565b60608315611a09575081610f9a565b825115611a195782518084602001fd5b816040517f08c379a00000000000000000000000000000000000000000000000000000000081526004016103009190611cd4565b610dda806120d583390190565b600060208284031215611a6b578081fd5b8135610f9a816120af565b600060208284031215611a87578081fd5b8151610f9a816120af565b60008060408385031215611aa4578081fd5b8235611aaf816120af565b946020939093013593505050565b600080600060608486031215611ad1578081fd5b8335611adc816120af565b95602085013595506040909401359392505050565b600060208284031215611b02578081fd5b81518015158114610f9a578182fd5b600060208284031215611b22578081fd5b5035919050565b600060208284031215611b3a578081fd5b5051919050565b60609290921b7fffffffffffffffffffffffffffffffffffffffff000000000000000000000000168252601482015260340190565b60008251611b88818460208701612083565b9190910192915050565b73ffffffffffffffffffffffffffffffffffffffff91909116815260200190565b73ffffffffffffffffffffffffffffffffffffffff9384168152919092166020820152604081019190915260600190565b73ffffffffffffffffffffffffffffffffffffffff958616815293909416602084015260408301919091526060820152608081019190915260a00190565b73ffffffffffffffffffffffffffffffffffffffff929092168252602082015260400190565b73ffffffffffffffffffffffffffffffffffffffff9586168152602081019490945291841660408401529092166060820152608081019190915260a00190565b73ffffffffffffffffffffffffffffffffffffffff958616815260208101949094529190931660408301526060820192909252608081019190915260a00190565b901515815260200190565b6000602082528251806020840152611cf3816040850160208701612083565b601f017fffffffffffffffffffffffffffffffffffffffffffffffffffffffffffffffe0169190910160400192915050565b60208082526026908201527f4f776e61626c653a206e6577206f776e657220697320746865207a65726f206160408201527f6464726573730000000000000000000000000000000000000000000000000000606082015260800190565b6020808252601a908201527f417274656f6e45786368616e67653a204e4f545f4c4953544544000000000000604082015260600190565b6020808252601c908201527f417274656f6e45786368616e67653a204e4f545f414e5f4f574e455200000000604082015260600190565b60208082526026908201527f416464726573733a20696e73756666696369656e742062616c616e636520666f60408201527f722063616c6c0000000000000000000000000000000000000000000000000000606082015260800190565b60208082526023908201527f417274656f6e45786368616e67653a2053454c4c45525f444f45535f4e4f545f60408201527f4f574e0000000000000000000000000000000000000000000000000000000000606082015260800190565b60208082526010908201527f5061757361626c653a2070617573656400000000000000000000000000000000604082015260600190565b6020808252818101527f4f776e61626c653a2063616c6c6572206973206e6f7420746865206f776e6572604082015260600190565b6020808252601e908201527f417274656f6e45786368616e67653a204c495354494e475f4558495354530000604082015260600190565b60208082526021908201527f417274656f6e45786368616e67653a204e4f545f454e4f5547485f544f4b454e60408201527f5300000000000000000000000000000000000000000000000000000000000000606082015260800190565b6020808252601d908201527f416464726573733a2063616c6c20746f206e6f6e2d636f6e7472616374000000604082015260600190565b6020808252602a908201527f5361666545524332303a204552433230206f7065726174696f6e20646964206e60408201527f6f74207375636365656400000000000000000000000000000000000000000000606082015260800190565b90815260200190565b60008282101561207e577f4e487b710000000000000000000000000000000000000000000000000000000081526011600452602481fd5b500390565b60005b8381101561209e578181015183820152602001612086565b838111156117245750506000910152565b73ffffffffffffffffffffffffffffffffffffffff811681146120d157600080fd5b5056fe608060405234801561001057600080fd5b50600080546001600160a01b03191633179055610da8806100326000396000f3fe608060405234801561001057600080fd5b50600436106100be5760003560e01c8063a6b63eb811610076578063c45a01551161005b578063c45a015514610141578063d910b05a14610149578063f088d5471461015e576100be565b8063a6b63eb81461011b578063b5f855211461012e576100be565b80638da5cb5b116100a75780638da5cb5b146100f657806391b7f5ed146100fe57806398d5fdca14610113576100be565b806317d70f7c146100c357806347712164146100e1575b600080fd5b6100cb610171565b6040516100d89190610d0a565b60405180910390f35b6100e9610177565b6040516100d89190610a7a565b6100e9610193565b61011161010c366004610a2e565b6101af565b005b6100cb61020e565b61011161012936600461099c565b610214565b61011161013c3660046109f6565b6102d0565b6100e9610352565b61015161036e565b6040516100d89190610acc565b61011161016c366004610964565b61038a565b60045481565b60035473ffffffffffffffffffffffffffffffffffffffff1681565b60015473ffffffffffffffffffffffffffffffffffffffff1690565b60005473ffffffffffffffffffffffffffffffffffffffff163314610209576040517f08c379a000000000000000000000000000000000000000000000000000000000815260040161020090610b85565b60405180910390fd5b600555565b60055490565b60005473ffffffffffffffffffffffffffffffffffffffff163314610265576040517f08c379a000000000000000000000000000000000000000000000000000000000815260040161020090610b85565b600380547fffffffffffffffffffffffff000000000000000000000000000000000000000090811673ffffffffffffffffffffffffffffffffffffffff9586161790915560049290925560055560018054821694831694909417909355600280549093169116179055565b60005473ffffffffffffffffffffffffffffffffffffffff163314610321576040517f08c379a000000000000000000000000000000000000000000000000000000000815260040161020090610b85565b600680547fffffffffffffffffffffffffffffffffffffffffffffffffffffffffffffff0016911515919091179055565b60005473ffffffffffffffffffffffffffffffffffffffff1681565b60065460009060ff16610382576001610385565b60005b905090565b60005473ffffffffffffffffffffffffffffffffffffffff1633146103db576040517f08c379a000000000000000000000000000000000000000000000000000000000815260040161020090610b85565b6103e4816104a9565b6002546001546005546104149273ffffffffffffffffffffffffffffffffffffffff90811692859291169061068d565b600354600154600480546040517f42842e0e00000000000000000000000000000000000000000000000000000000815273ffffffffffffffffffffffffffffffffffffffff948516946342842e0e94610474949116928792909101610a9b565b600060405180830381600087803b15801561048e57600080fd5b505af11580156104a2573d6000803e3d6000fd5b5050505050565b600154600354600480546040517f6352211e00000000000000000000000000000000000000000000000000000000815273ffffffffffffffffffffffffffffffffffffffff9485169490931692636352211e92610507929101610d0a565b60206040518083038186803b15801561051f57600080fd5b505afa158015610533573d6000803e3d6000fd5b505050506040513d601f19601f820116820180604052508101906105579190610980565b73ffffffffffffffffffffffffffffffffffffffff16146105a4576040517f08c379a000000000000000000000000000000000000000000000000000000000815260040161020090610bbc565b6002546040517f70a0823100000000000000000000000000000000000000000000000000000000815260009173ffffffffffffffffffffffffffffffffffffffff16906370a08231906105fb908590600401610a7a565b60206040518083038186803b15801561061357600080fd5b505afa158015610627573d6000803e3d6000fd5b505050506040513d601f19601f8201168201806040525081019061064b9190610a46565b9050600554811015610689576040517f08c379a000000000000000000000000000000000000000000000000000000000815260040161020090610c19565b5050565b610730846323b872dd60e01b8585856040516024016106ae93929190610a9b565b604080517fffffffffffffffffffffffffffffffffffffffffffffffffffffffffffffffe08184030181529190526020810180517bffffffffffffffffffffffffffffffffffffffffffffffffffffffff167fffffffff0000000000000000000000000000000000000000000000000000000090931692909217909152610736565b50505050565b6000610798826040518060400160405280602081526020017f5361666545524332303a206c6f772d6c6576656c2063616c6c206661696c65648152508573ffffffffffffffffffffffffffffffffffffffff166107f19092919063ffffffff16565b8051909150156107ec57808060200190518101906107b69190610a12565b6107ec576040517f08c379a000000000000000000000000000000000000000000000000000000000815260040161020090610cad565b505050565b6060610800848460008561080a565b90505b9392505050565b606082471015610846576040517f08c379a000000000000000000000000000000000000000000000000000000000815260040161020090610b28565b61084f8561090b565b610885576040517f08c379a000000000000000000000000000000000000000000000000000000000815260040161020090610c76565b6000808673ffffffffffffffffffffffffffffffffffffffff1685876040516108ae9190610a5e565b60006040518083038185875af1925050503d80600081146108eb576040519150601f19603f3d011682016040523d82523d6000602084013e6108f0565b606091505b5091509150610900828286610911565b979650505050505050565b3b151590565b60608315610920575081610803565b8251156109305782518084602001fd5b816040517f08c379a00000000000000000000000000000000000000000000000000000000081526004016102009190610ad7565b600060208284031215610975578081fd5b813561080381610d3f565b600060208284031215610991578081fd5b815161080381610d3f565b600080600080600060a086880312156109b3578081fd5b85356109be81610d3f565b945060208601356109ce81610d3f565b935060408601356109de81610d3f565b94979396509394606081013594506080013592915050565b600060208284031215610a07578081fd5b813561080381610d64565b600060208284031215610a23578081fd5b815161080381610d64565b600060208284031215610a3f578081fd5b5035919050565b600060208284031215610a57578081fd5b5051919050565b60008251610a70818460208701610d13565b9190910192915050565b73ffffffffffffffffffffffffffffffffffffffff91909116815260200190565b73ffffffffffffffffffffffffffffffffffffffff9384168152919092166020820152604081019190915260600190565b901515815260200190565b6000602082528251806020840152610af6816040850160208701610d13565b601f017fffffffffffffffffffffffffffffffffffffffffffffffffffffffffffffffe0169190910160400192915050565b60208082526026908201527f416464726573733a20696e73756666696369656e742062616c616e636520666f60408201527f722063616c6c0000000000000000000000000000000000000000000000000000606082015260800190565b6020808252601a908201527f417274656f6e4c697374696e673a204e4f545f414c4c4f574544000000000000604082015260600190565b60208082526022908201527f417274656f6e4c697374696e673a2053454c4c45525f444f45535f4e4f545f4f60408201527f574e000000000000000000000000000000000000000000000000000000000000606082015260800190565b60208082526021908201527f417274656f6e45786368616e67653a204e4f545f454e4f5547485f544f4b454e60408201527f5300000000000000000000000000000000000000000000000000000000000000606082015260800190565b6020808252601d908201527f416464726573733a2063616c6c20746f206e6f6e2d636f6e7472616374000000604082015260600190565b6020808252602a908201527f5361666545524332303a204552433230206f7065726174696f6e20646964206e60408201527f6f74207375636365656400000000000000000000000000000000000000000000606082015260800190565b90815260200190565b60005b83811015610d2e578181015183820152602001610d16565b838111156107305750506000910152565b73ffffffffffffffffffffffffffffffffffffffff81168114610d6157600080fd5b50565b8015158114610d6157600080fdfea2646970667358221220dcf5ec917df725c23bc01ac619c92a158305b34b37424992c4c50f58d5014eeb64736f6c63430008000033a264697066735822122032038160599d6a0fab1ad183fadf23c6aea1ef647cc9deb6c57153efe43050d064736f6c63430008000033",
  "immutableReferences": {},
  "source": "// SPDX-License-Identifier: MIT\r\n\r\npragma solidity ^0.8.0;\r\nimport './../../node_modules/@openzeppelin/contracts/token/ERC20/utils/SafeERC20.sol';\r\nimport './../../node_modules/@openzeppelin/contracts/token/ERC20/IERC20.sol';\r\nimport './../../node_modules/@openzeppelin/contracts/token/ERC721/IERC721.sol';\r\nimport './../../node_modules/@openzeppelin/contracts/access/Ownable.sol';\r\nimport './../../node_modules/@openzeppelin/contracts/security/Pausable.sol';\r\nimport './../gpu/ArteonGPU.sol';\r\nimport './../token/interfaces/IArteonToken.sol';\r\nimport './ArteonListing.sol';\r\n\r\ncontract ArteonExchange is Ownable, Pausable {\r\n  address public ARTEON_TOKEN;\r\n\r\n  struct Listing {\r\n    address owner;\r\n    address gpu;\r\n    uint256 tokenId;\r\n    uint256 price;\r\n    uint256 index;\r\n  }\r\n\r\n  address[] public listings;\r\n  mapping(address => uint256[]) public tokenIds;\r\n\r\n  mapping (address => mapping(uint256 => address)) public getListing;\r\n  mapping (address => Listing) public lists;\r\n\r\n  event ListingCreated(address ArteonGPU, uint256 tokenId, address listing, uint, uint256 price);\r\n  event Delist(address gpu, uint256 tokenId);\r\n  event Buy(address gpu, uint256 tokenId, address listing, address owner, uint256 price);\r\n\r\n  constructor(address token) {\r\n    ARTEON_TOKEN = token;\r\n  }\r\n\r\n  modifier isListed(address gpu, uint256 tokenId) {\r\n    address listing = getListing[gpu][tokenId];\r\n    require(listing != address(0), 'ArteonExchange: NOT_LISTED');\r\n    _;\r\n  }\r\n\r\n  function tokenIdsLength(address gpu) external view returns (uint256) {\r\n    return tokenIds[gpu].length;\r\n  }\r\n\r\n  function listingLength() external view returns (uint256) {\r\n    return listings.length;\r\n  }\r\n\r\n  function list(address gpu, uint256 tokenId, uint256 price) external returns (address listing) {\r\n    require(getListing[gpu][tokenId] == address(0), 'ArteonExchange: LISTING_EXISTS');\r\n    require(IERC721(gpu).ownerOf(tokenId) == msg.sender, 'ArteonExchange: NOT_AN_OWNER');\r\n    bytes memory bytecode = type(ArteonListing).creationCode;\r\n    bytes32 salt = keccak256(abi.encodePacked(gpu, tokenId));\r\n    assembly {\r\n      listing := create2(0, add(bytecode, 32), mload(bytecode), salt)\r\n    }\r\n\r\n    getListing[gpu][tokenId] = listing;\r\n    listings.push(listing);\r\n    tokenIds[gpu].push(tokenId);\r\n    lists[listing].owner = msg.sender;\r\n    lists[listing].gpu = gpu;\r\n    lists[listing].price = price;\r\n    lists[listing].tokenId = tokenId;\r\n    lists[listing].index = listings.length - 1;\r\n\r\n    emit ListingCreated(gpu, tokenId, listing, listings.length, price);\r\n    return listing;\r\n  }\r\n\r\n  function forceDelist(address gpu, uint256 tokenId) external isListed(gpu, tokenId) onlyOwner {\r\n    __removeListing(gpu, tokenId);\r\n  }\r\n\r\n  function delist(address gpu, uint256 tokenId) external isListed(gpu, tokenId) {\r\n    _removeListing(gpu, tokenId, msg.sender);\r\n  }\r\n\r\n  function buy(address gpu, uint256 tokenId) external isListed(gpu, tokenId) {\r\n    address listing = getListing[gpu][tokenId];\r\n    require(IERC721(lists[listing].gpu).ownerOf(lists[listing].tokenId) == lists[listing].owner, 'ArteonExchange: SELLER_DOES_NOT_OWN');\r\n    uint256 balance = IERC20(ARTEON_TOKEN).balanceOf(msg.sender);\r\n    require(balance >= lists[listing].price, 'ArteonExchange: NOT_ENOUGH_TOKENS');\r\n\r\n    SafeERC20.safeTransferFrom(IERC20(ARTEON_TOKEN), msg.sender, lists[listing].owner, lists[listing].price);\r\n    // IERC20(ARTEON_TOKEN).burnFrom(msg.sender, lists[listing].price);\r\n    IERC721(lists[listing].gpu).safeTransferFrom(lists[listing].owner, msg.sender, lists[listing].tokenId);\r\n    _removeListing(gpu, tokenId, msg.sender);\r\n\r\n    emit Buy(gpu, tokenId, listing, msg.sender, lists[listing].price);\r\n  }\r\n\r\n  function _removeListing(address gpu, uint256 tokenId, address owner) internal {\r\n    require(IERC721(gpu).ownerOf(tokenId) == owner, 'ArteonExchange: NOT_AN_OWNER');\r\n    __removeListing(gpu, tokenId);\r\n  }\r\n\r\n  function __removeListing(address gpu, uint256 tokenId) internal {\r\n    address listing = getListing[gpu][tokenId];\r\n    uint256 index = lists[listing].index;\r\n    address lastListing = listings[listings.length - 1];\r\n    uint256 lastTokenId = tokenIds[gpu][tokenIds[gpu].length - 1];\r\n    listings[index] = lastListing;\r\n    tokenIds[gpu][index] = lastTokenId;\r\n    lists[lastListing].index = index;\r\n    listings.pop();\r\n    tokenIds[gpu].pop();\r\n    getListing[gpu][tokenId] = address(0);\r\n    emit Delist(gpu, tokenId);\r\n  }\r\n\r\n  function setPrice(address gpu, uint256 tokenId, uint256 price) external isListed(gpu, tokenId) {\r\n    require(IERC721(gpu).ownerOf(tokenId) == msg.sender, 'ArteonExchange: NOT_AN_OWNER');\r\n    address listing = getListing[gpu][tokenId];\r\n    lists[listing].price = price;\r\n  }\r\n\r\n  function getPrice(address gpu, uint256 tokenId) external isListed(gpu, tokenId) returns (uint256 price) {\r\n    address listing = getListing[gpu][tokenId];\r\n    return lists[listing].price;\r\n  }\r\n\r\n  function pause() external virtual whenNotPaused onlyOwner {\r\n    super._pause();\r\n  }\r\n\r\n  function unpause() internal virtual whenPaused onlyOwner {\r\n    super._unpause();\r\n  }\r\n}\r\n",
  "sourcePath": "D:/Workspace/Arteon/monorepo/contracts/exchange/ArteonExchange.sol",
  "compiler": {
    "name": "solc",
    "version": "0.8.0+commit.c7dfd78e.Emscripten.clang"
  },
  "schemaVersion": "3.3.4",
  "updatedAt": "2021-07-12T20:25:37.186Z",
  "networkType": "ethereum",
  "devdoc": {
    "kind": "dev",
    "methods": {
      "owner()": {
        "details": "Returns the address of the current owner."
      },
      "paused()": {
        "details": "Returns true if the contract is paused, and false otherwise."
      },
      "renounceOwnership()": {
        "details": "Leaves the contract without owner. It will not be possible to call `onlyOwner` functions anymore. Can only be called by the current owner. NOTE: Renouncing ownership will leave the contract without an owner, thereby removing any functionality that is only available to the owner."
      },
      "transferOwnership(address)": {
        "details": "Transfers ownership of the contract to a new account (`newOwner`). Can only be called by the current owner."
      }
    },
    "version": 1
  },
  "userdoc": {
    "kind": "user",
    "methods": {},
    "version": 1
  }
}