{
  "contractName": "ArteonListing",
  "abi": [
    {
      "inputs": [],
      "stateMutability": "nonpayable",
      "type": "constructor"
    },
    {
      "inputs": [],
      "name": "arteonGPU",
      "outputs": [
        {
          "internalType": "address",
          "name": "",
          "type": "address"
        }
      ],
      "stateMutability": "view",
      "type": "function"
    },
    {
      "inputs": [],
      "name": "factory",
      "outputs": [
        {
          "internalType": "address",
          "name": "",
          "type": "address"
        }
      ],
      "stateMutability": "view",
      "type": "function"
    },
    {
      "inputs": [],
      "name": "tokenId",
      "outputs": [
        {
          "internalType": "uint256",
          "name": "",
          "type": "uint256"
        }
      ],
      "stateMutability": "view",
      "type": "function"
    },
    {
      "inputs": [],
      "name": "owner",
      "outputs": [
        {
          "internalType": "address",
          "name": "",
          "type": "address"
        }
      ],
      "stateMutability": "view",
      "type": "function"
    },
    {
      "inputs": [
        {
          "internalType": "address",
          "name": "receiver",
          "type": "address"
        }
      ],
      "name": "buy",
      "outputs": [],
      "stateMutability": "nonpayable",
      "type": "function"
    },
    {
      "inputs": [
        {
          "internalType": "address",
          "name": "owner_",
          "type": "address"
        },
        {
          "internalType": "address",
          "name": "token_",
          "type": "address"
        },
        {
          "internalType": "address",
          "name": "arteonGPU_",
          "type": "address"
        },
        {
          "internalType": "uint256",
          "name": "tokenId_",
          "type": "uint256"
        },
        {
          "internalType": "uint256",
          "name": "price_",
          "type": "uint256"
        }
      ],
      "name": "initialize",
      "outputs": [],
      "stateMutability": "nonpayable",
      "type": "function"
    },
    {
      "inputs": [
        {
          "internalType": "uint256",
          "name": "amount",
          "type": "uint256"
        }
      ],
      "name": "setPrice",
      "outputs": [],
      "stateMutability": "nonpayable",
      "type": "function"
    },
    {
      "inputs": [],
      "name": "getPrice",
      "outputs": [
        {
          "internalType": "uint256",
          "name": "",
          "type": "uint256"
        }
      ],
      "stateMutability": "view",
      "type": "function"
    },
    {
      "inputs": [],
      "name": "isListed",
      "outputs": [
        {
          "internalType": "bool",
          "name": "",
          "type": "bool"
        }
      ],
      "stateMutability": "view",
      "type": "function"
    },
    {
      "inputs": [
        {
          "internalType": "bool",
          "name": "delisted",
          "type": "bool"
        }
      ],
      "name": "delist",
      "outputs": [],
      "stateMutability": "nonpayable",
      "type": "function"
    }
  ],
  "bytecode": "0x608060405234801561001057600080fd5b50600080546001600160a01b03191633179055610da8806100326000396000f3fe608060405234801561001057600080fd5b50600436106100be5760003560e01c8063a6b63eb811610076578063c45a01551161005b578063c45a015514610141578063d910b05a14610149578063f088d5471461015e576100be565b8063a6b63eb81461011b578063b5f855211461012e576100be565b80638da5cb5b116100a75780638da5cb5b146100f657806391b7f5ed146100fe57806398d5fdca14610113576100be565b806317d70f7c146100c357806347712164146100e1575b600080fd5b6100cb610171565b6040516100d89190610d0a565b60405180910390f35b6100e9610177565b6040516100d89190610a7a565b6100e9610193565b61011161010c366004610a2e565b6101af565b005b6100cb61020e565b61011161012936600461099c565b610214565b61011161013c3660046109f6565b6102d0565b6100e9610352565b61015161036e565b6040516100d89190610acc565b61011161016c366004610964565b61038a565b60045481565b60035473ffffffffffffffffffffffffffffffffffffffff1681565b60015473ffffffffffffffffffffffffffffffffffffffff1690565b60005473ffffffffffffffffffffffffffffffffffffffff163314610209576040517f08c379a000000000000000000000000000000000000000000000000000000000815260040161020090610b85565b60405180910390fd5b600555565b60055490565b60005473ffffffffffffffffffffffffffffffffffffffff163314610265576040517f08c379a000000000000000000000000000000000000000000000000000000000815260040161020090610b85565b600380547fffffffffffffffffffffffff000000000000000000000000000000000000000090811673ffffffffffffffffffffffffffffffffffffffff9586161790915560049290925560055560018054821694831694909417909355600280549093169116179055565b60005473ffffffffffffffffffffffffffffffffffffffff163314610321576040517f08c379a000000000000000000000000000000000000000000000000000000000815260040161020090610b85565b600680547fffffffffffffffffffffffffffffffffffffffffffffffffffffffffffffff0016911515919091179055565b60005473ffffffffffffffffffffffffffffffffffffffff1681565b60065460009060ff16610382576001610385565b60005b905090565b60005473ffffffffffffffffffffffffffffffffffffffff1633146103db576040517f08c379a000000000000000000000000000000000000000000000000000000000815260040161020090610b85565b6103e4816104a9565b6002546001546005546104149273ffffffffffffffffffffffffffffffffffffffff90811692859291169061068d565b600354600154600480546040517f42842e0e00000000000000000000000000000000000000000000000000000000815273ffffffffffffffffffffffffffffffffffffffff948516946342842e0e94610474949116928792909101610a9b565b600060405180830381600087803b15801561048e57600080fd5b505af11580156104a2573d6000803e3d6000fd5b5050505050565b600154600354600480546040517f6352211e00000000000000000000000000000000000000000000000000000000815273ffffffffffffffffffffffffffffffffffffffff9485169490931692636352211e92610507929101610d0a565b60206040518083038186803b15801561051f57600080fd5b505afa158015610533573d6000803e3d6000fd5b505050506040513d601f19601f820116820180604052508101906105579190610980565b73ffffffffffffffffffffffffffffffffffffffff16146105a4576040517f08c379a000000000000000000000000000000000000000000000000000000000815260040161020090610bbc565b6002546040517f70a0823100000000000000000000000000000000000000000000000000000000815260009173ffffffffffffffffffffffffffffffffffffffff16906370a08231906105fb908590600401610a7a565b60206040518083038186803b15801561061357600080fd5b505afa158015610627573d6000803e3d6000fd5b505050506040513d601f19601f8201168201806040525081019061064b9190610a46565b9050600554811015610689576040517f08c379a000000000000000000000000000000000000000000000000000000000815260040161020090610c19565b5050565b610730846323b872dd60e01b8585856040516024016106ae93929190610a9b565b604080517fffffffffffffffffffffffffffffffffffffffffffffffffffffffffffffffe08184030181529190526020810180517bffffffffffffffffffffffffffffffffffffffffffffffffffffffff167fffffffff0000000000000000000000000000000000000000000000000000000090931692909217909152610736565b50505050565b6000610798826040518060400160405280602081526020017f5361666545524332303a206c6f772d6c6576656c2063616c6c206661696c65648152508573ffffffffffffffffffffffffffffffffffffffff166107f19092919063ffffffff16565b8051909150156107ec57808060200190518101906107b69190610a12565b6107ec576040517f08c379a000000000000000000000000000000000000000000000000000000000815260040161020090610cad565b505050565b6060610800848460008561080a565b90505b9392505050565b606082471015610846576040517f08c379a000000000000000000000000000000000000000000000000000000000815260040161020090610b28565b61084f8561090b565b610885576040517f08c379a000000000000000000000000000000000000000000000000000000000815260040161020090610c76565b6000808673ffffffffffffffffffffffffffffffffffffffff1685876040516108ae9190610a5e565b60006040518083038185875af1925050503d80600081146108eb576040519150601f19603f3d011682016040523d82523d6000602084013e6108f0565b606091505b5091509150610900828286610911565b979650505050505050565b3b151590565b60608315610920575081610803565b8251156109305782518084602001fd5b816040517f08c379a00000000000000000000000000000000000000000000000000000000081526004016102009190610ad7565b600060208284031215610975578081fd5b813561080381610d3f565b600060208284031215610991578081fd5b815161080381610d3f565b600080600080600060a086880312156109b3578081fd5b85356109be81610d3f565b945060208601356109ce81610d3f565b935060408601356109de81610d3f565b94979396509394606081013594506080013592915050565b600060208284031215610a07578081fd5b813561080381610d64565b600060208284031215610a23578081fd5b815161080381610d64565b600060208284031215610a3f578081fd5b5035919050565b600060208284031215610a57578081fd5b5051919050565b60008251610a70818460208701610d13565b9190910192915050565b73ffffffffffffffffffffffffffffffffffffffff91909116815260200190565b73ffffffffffffffffffffffffffffffffffffffff9384168152919092166020820152604081019190915260600190565b901515815260200190565b6000602082528251806020840152610af6816040850160208701610d13565b601f017fffffffffffffffffffffffffffffffffffffffffffffffffffffffffffffffe0169190910160400192915050565b60208082526026908201527f416464726573733a20696e73756666696369656e742062616c616e636520666f60408201527f722063616c6c0000000000000000000000000000000000000000000000000000606082015260800190565b6020808252601a908201527f417274656f6e4c697374696e673a204e4f545f414c4c4f574544000000000000604082015260600190565b60208082526022908201527f417274656f6e4c697374696e673a2053454c4c45525f444f45535f4e4f545f4f60408201527f574e000000000000000000000000000000000000000000000000000000000000606082015260800190565b60208082526021908201527f417274656f6e45786368616e67653a204e4f545f454e4f5547485f544f4b454e60408201527f5300000000000000000000000000000000000000000000000000000000000000606082015260800190565b6020808252601d908201527f416464726573733a2063616c6c20746f206e6f6e2d636f6e7472616374000000604082015260600190565b6020808252602a908201527f5361666545524332303a204552433230206f7065726174696f6e20646964206e60408201527f6f74207375636365656400000000000000000000000000000000000000000000606082015260800190565b90815260200190565b60005b83811015610d2e578181015183820152602001610d16565b838111156107305750506000910152565b73ffffffffffffffffffffffffffffffffffffffff81168114610d6157600080fd5b50565b8015158114610d6157600080fdfea2646970667358221220dcf5ec917df725c23bc01ac619c92a158305b34b37424992c4c50f58d5014eeb64736f6c63430008000033",
  "immutableReferences": {},
  "source": "// SPDX-License-Identifier: MIT\r\n\r\npragma solidity ^0.8.0;\r\n\r\nimport './interfaces/IArteonListing.sol';\r\nimport './../../node_modules/@openzeppelin/contracts/token/ERC20/utils/SafeERC20.sol';\r\nimport './../../node_modules/@openzeppelin/contracts/token/ERC20/IERC20.sol';\r\nimport './../../node_modules/@openzeppelin/contracts/token/ERC721/IERC721.sol';\r\n\r\ncontract ArteonListing is IArteonListing {\r\n  address public factory;\r\n  address private _owner;\r\n  address private _token;\r\n  address public arteonGPU;\r\n  uint256 public tokenId;\r\n  uint256 private _price;\r\n  bool private _delisted;\r\n\r\n  constructor() {\r\n    factory = msg.sender;\r\n  }\r\n\r\n  function owner() public view override returns (address) {\r\n    return _owner;\r\n  }\r\n\r\n  function buy(address receiver) external override {\r\n    require(msg.sender == factory, 'ArteonListing: NOT_ALLOWED');\r\n    _beforeTransfer(receiver);\r\n    SafeERC20.safeTransferFrom(IERC20(_token), receiver, _owner, _price);\r\n    IERC721(arteonGPU).safeTransferFrom(_owner, receiver, tokenId);\r\n  }\r\n\r\n  function _beforeTransfer(address receiver) internal {\r\n    require(IERC721(arteonGPU).ownerOf(tokenId) == _owner, 'ArteonListing: SELLER_DOES_NOT_OWN');\r\n    uint256 balance = IERC20(_token).balanceOf(receiver);\r\n    require(balance >= _price, 'ArteonExchange: NOT_ENOUGH_TOKENS');\r\n  }\r\n\r\n  function initialize(address owner_, address token_, address arteonGPU_, uint256 tokenId_, uint256 price_) external override {\r\n    require(msg.sender == factory, 'ArteonListing: NOT_ALLOWED');\r\n    arteonGPU = arteonGPU_;\r\n    tokenId = tokenId_;\r\n    _price = price_;\r\n    _owner = owner_;\r\n    _token = token_;\r\n  }\r\n\r\n  function setPrice(uint256 amount) external override {\r\n    require(msg.sender == factory, 'ArteonListing: NOT_ALLOWED');\r\n    _price = amount;\r\n  }\r\n\r\n  function getPrice() external view override returns (uint256) {\r\n    return _price;\r\n  }\r\n\r\n  function isListed() external view override returns (bool) {\r\n    return _delisted ? false : true;\r\n  }\r\n\r\n  function delist(bool delisted) external override {\r\n    require(msg.sender == factory, 'ArteonListing: NOT_ALLOWED');\r\n    _delisted = delisted;\r\n  }\r\n}\r\n",
  "sourcePath": "D:/Workspace/Arteon/monorepo/contracts/exchange/ArteonListing.sol",
  "compiler": {
    "name": "solc",
    "version": "0.8.0+commit.c7dfd78e.Emscripten.clang"
  },
  "schemaVersion": "3.3.4",
  "updatedAt": "2021-07-10T13:09:37.824Z",
  "devdoc": {
    "kind": "dev",
    "methods": {},
    "version": 1
  },
  "userdoc": {
    "kind": "user",
    "methods": {},
    "version": 1
  }
}