{
  "contractName": "ArteonListing",
  "abi": [
    {
      "inputs": [],
      "stateMutability": "nonpayable",
      "type": "constructor"
    },
    {
      "inputs": [],
      "name": "arteonGPU",
      "outputs": [
        {
          "internalType": "address",
          "name": "",
          "type": "address"
        }
      ],
      "stateMutability": "view",
      "type": "function"
    },
    {
      "inputs": [],
      "name": "factory",
      "outputs": [
        {
          "internalType": "address",
          "name": "",
          "type": "address"
        }
      ],
      "stateMutability": "view",
      "type": "function"
    },
    {
      "inputs": [],
      "name": "tokenId",
      "outputs": [
        {
          "internalType": "uint256",
          "name": "",
          "type": "uint256"
        }
      ],
      "stateMutability": "view",
      "type": "function"
    },
    {
      "inputs": [
        {
          "internalType": "address",
          "name": "arteonGPU_",
          "type": "address"
        },
        {
          "internalType": "uint256",
          "name": "tokenId_",
          "type": "uint256"
        },
        {
          "internalType": "uint256",
          "name": "price_",
          "type": "uint256"
        }
      ],
      "name": "initialize",
      "outputs": [],
      "stateMutability": "nonpayable",
      "type": "function"
    },
    {
      "inputs": [
        {
          "internalType": "uint256",
          "name": "amount",
          "type": "uint256"
        }
      ],
      "name": "setPrice",
      "outputs": [],
      "stateMutability": "nonpayable",
      "type": "function"
    },
    {
      "inputs": [],
      "name": "getPrice",
      "outputs": [
        {
          "internalType": "uint256",
          "name": "",
          "type": "uint256"
        }
      ],
      "stateMutability": "view",
      "type": "function"
    },
    {
      "inputs": [],
      "name": "isListed",
      "outputs": [
        {
          "internalType": "bool",
          "name": "",
          "type": "bool"
        }
      ],
      "stateMutability": "view",
      "type": "function"
    },
    {
      "inputs": [
        {
          "internalType": "bool",
          "name": "delisted",
          "type": "bool"
        }
      ],
      "name": "delist",
      "outputs": [],
      "stateMutability": "nonpayable",
      "type": "function"
    }
  ],
  "bytecode": "0x608060405234801561001057600080fd5b50600080546001600160a01b031916331790556103dc806100326000396000f3fe608060405234801561001057600080fd5b50600436106100885760003560e01c806398d5fdca1161005b57806398d5fdca146100e8578063b5f85521146100f0578063c45a015514610103578063d910b05a1461010b57610088565b806317d70f7c1461008d57806347712164146100ab5780637a1ac61e146100c057806391b7f5ed146100d5575b600080fd5b610095610120565b6040516100a2919061039d565b60405180910390f35b6100b3610126565b6040516100a2919061033a565b6100d36100ce3660046102af565b610142565b005b6100d36100e3366004610322565b6101ea565b610095610240565b6100d36100fe3660046102fb565b610246565b6100b3610277565b610113610293565b6040516100a2919061035b565b60025481565b60015473ffffffffffffffffffffffffffffffffffffffff1681565b60005473ffffffffffffffffffffffffffffffffffffffff16331461019c576040517f08c379a000000000000000000000000000000000000000000000000000000000815260040161019390610366565b60405180910390fd5b600180547fffffffffffffffffffffffff00000000000000000000000000000000000000001673ffffffffffffffffffffffffffffffffffffffff9490941693909317909255600255600355565b60005473ffffffffffffffffffffffffffffffffffffffff16331461023b576040517f08c379a000000000000000000000000000000000000000000000000000000000815260040161019390610366565b600355565b60035490565b600480547fffffffffffffffffffffffffffffffffffffffffffffffffffffffffffffff0016911515919091179055565b60005473ffffffffffffffffffffffffffffffffffffffff1681565b60045460009060ff166102a75760016102aa565b60005b905090565b6000806000606084860312156102c3578283fd5b833573ffffffffffffffffffffffffffffffffffffffff811681146102e6578384fd5b95602085013595506040909401359392505050565b60006020828403121561030c578081fd5b8135801515811461031b578182fd5b9392505050565b600060208284031215610333578081fd5b5035919050565b73ffffffffffffffffffffffffffffffffffffffff91909116815260200190565b901515815260200190565b6020808252601a908201527f417274656f6e4c697374696e673a204e4f545f414c4c4f574544000000000000604082015260600190565b9081526020019056fea2646970667358221220e541fce5799a0ffd3ac1a0f829dcc8964b7db80307a11ef68cb79a0200975fbc64736f6c63430008000033",
  "immutableReferences": {},
  "source": "// SPDX-License-Identifier: MIT\r\n\r\npragma solidity ^0.8.0;\r\n\r\nimport './interfaces/IArteonListing.sol';\r\n\r\ncontract ArteonListing is IArteonListing {\r\n  address public factory;\r\n  address public arteonGPU;\r\n  uint256 public tokenId;\r\n  uint256 private _price;\r\n  bool private _delisted;\r\n\r\n  constructor() {\r\n    factory = msg.sender;\r\n  }\r\n\r\n  function initialize(address arteonGPU_, uint256 tokenId_, uint256 price_) external override {\r\n    require(msg.sender == factory, 'ArteonListing: NOT_ALLOWED');\r\n    arteonGPU = arteonGPU_;\r\n    tokenId = tokenId_;\r\n    _price = price_;\r\n  }\r\n\r\n  function setPrice(uint256 amount) external override {\r\n    require(msg.sender == factory, 'ArteonListing: NOT_ALLOWED');\r\n    _price = amount;\r\n  }\r\n\r\n  function getPrice() external view override returns (uint256) {\r\n    return _price;\r\n  }\r\n\r\n  function isListed() external view override returns (bool) {\r\n    return _delisted ? false : true;\r\n  }\r\n\r\n  function delist(bool delisted) external override {\r\n    _delisted = delisted;\r\n  }\r\n}\r\n",
  "sourcePath": "D:/Workspace/Arteon/monorepo/contracts/exchange/ArteonListing.sol",
  "compiler": {
    "name": "solc",
    "version": "0.8.0+commit.c7dfd78e.Emscripten.clang"
  },
  "schemaVersion": "3.3.4",
  "updatedAt": "2021-06-13T12:11:00.271Z",
  "devdoc": {
    "kind": "dev",
    "methods": {},
    "version": 1
  },
  "userdoc": {
    "kind": "user",
    "methods": {},
    "version": 1
  }
}