{
  "contractName": "ArteonPoolFactory",
  "abi": [
    {
      "anonymous": false,
      "inputs": [
        {
          "indexed": true,
          "internalType": "address",
          "name": "previousOwner",
          "type": "address"
        },
        {
          "indexed": true,
          "internalType": "address",
          "name": "newOwner",
          "type": "address"
        }
      ],
      "name": "OwnershipTransferred",
      "type": "event"
    },
    {
      "anonymous": false,
      "inputs": [
        {
          "indexed": false,
          "internalType": "address",
          "name": "listedToken",
          "type": "address"
        },
        {
          "indexed": false,
          "internalType": "uint256",
          "name": "",
          "type": "uint256"
        }
      ],
      "name": "TokenAdded",
      "type": "event"
    },
    {
      "inputs": [
        {
          "internalType": "address",
          "name": "",
          "type": "address"
        },
        {
          "internalType": "address",
          "name": "",
          "type": "address"
        }
      ],
      "name": "getListed",
      "outputs": [
        {
          "internalType": "address",
          "name": "",
          "type": "address"
        }
      ],
      "stateMutability": "view",
      "type": "function",
      "constant": true
    },
    {
      "inputs": [
        {
          "internalType": "address",
          "name": "",
          "type": "address"
        }
      ],
      "name": "getToken",
      "outputs": [
        {
          "internalType": "address",
          "name": "",
          "type": "address"
        }
      ],
      "stateMutability": "view",
      "type": "function",
      "constant": true
    },
    {
      "inputs": [
        {
          "internalType": "uint256",
          "name": "",
          "type": "uint256"
        }
      ],
      "name": "listedTokens",
      "outputs": [
        {
          "internalType": "address",
          "name": "",
          "type": "address"
        }
      ],
      "stateMutability": "view",
      "type": "function",
      "constant": true
    },
    {
      "inputs": [],
      "name": "owner",
      "outputs": [
        {
          "internalType": "address",
          "name": "",
          "type": "address"
        }
      ],
      "stateMutability": "view",
      "type": "function",
      "constant": true
    },
    {
      "inputs": [],
      "name": "renounceOwnership",
      "outputs": [],
      "stateMutability": "nonpayable",
      "type": "function"
    },
    {
      "inputs": [
        {
          "internalType": "address",
          "name": "newOwner",
          "type": "address"
        }
      ],
      "name": "transferOwnership",
      "outputs": [],
      "stateMutability": "nonpayable",
      "type": "function"
    },
    {
      "inputs": [],
      "name": "tokens",
      "outputs": [
        {
          "internalType": "uint256",
          "name": "",
          "type": "uint256"
        }
      ],
      "stateMutability": "view",
      "type": "function",
      "constant": true
    },
    {
      "inputs": [
        {
          "internalType": "address",
          "name": "gpu",
          "type": "address"
        },
        {
          "internalType": "address",
          "name": "token",
          "type": "address"
        },
        {
          "internalType": "uint256",
          "name": "blockTime",
          "type": "uint256"
        },
        {
          "internalType": "uint256",
          "name": "maxReward",
          "type": "uint256"
        },
        {
          "internalType": "uint256",
          "name": "halvings",
          "type": "uint256"
        }
      ],
      "name": "addToken",
      "outputs": [
        {
          "internalType": "address",
          "name": "listedToken",
          "type": "address"
        }
      ],
      "stateMutability": "nonpayable",
      "type": "function"
    }
  ],
  "bytecode": "0x608060405234801561001057600080fd5b50600061001b61006a565b600080546001600160a01b0319166001600160a01b0383169081178255604051929350917f8be0079c531659141344cd1fd0a4f28419497f9722a3daafe3b4186f6b6457e0908290a35061006e565b3390565b611ed08061007d6000396000f3fe608060405234801561001057600080fd5b50600436106100885760003560e01c80638da5cb5b1161005b5780638da5cb5b146100e657806392e25078146100ee5780639d63848a14610101578063f2fde38b1461011657610088565b8063597704381461008d5780635a9d1ac3146100b6578063715018a6146100c9578063876ca985146100d3575b600080fd5b6100a061009b366004610710565b610129565b6040516100ad9190610801565b60405180910390f35b6100a06100c43660046107af565b610151565b6100d1610188565b005b6100a06100e1366004610763565b610273565b6100a0610534565b6100a06100fc366004610731565b610550565b610109610583565b6040516100ad919061094f565b6100d1610124366004610710565b610589565b60016020526000908152604090205473ffffffffffffffffffffffffffffffffffffffff1681565b6003818154811061016157600080fd5b60009182526020909120015473ffffffffffffffffffffffffffffffffffffffff16905081565b6101906106d6565b73ffffffffffffffffffffffffffffffffffffffff166101ae610534565b73ffffffffffffffffffffffffffffffffffffffff1614610204576040517f08c379a00000000000000000000000000000000000000000000000000000000081526004016101fb906108e3565b60405180910390fd5b6000805460405173ffffffffffffffffffffffffffffffffffffffff909116907f8be0079c531659141344cd1fd0a4f28419497f9722a3daafe3b4186f6b6457e0908390a3600080547fffffffffffffffffffffffff0000000000000000000000000000000000000000169055565b600061027d6106d6565b73ffffffffffffffffffffffffffffffffffffffff1661029b610534565b73ffffffffffffffffffffffffffffffffffffffff16146102e8576040517f08c379a00000000000000000000000000000000000000000000000000000000081526004016101fb906108e3565b73ffffffffffffffffffffffffffffffffffffffff85811660009081526002602090815260408083208a851684529091529020541615610354576040517f08c379a00000000000000000000000000000000000000000000000000000000081526004016101fb90610918565b600060405180602001610366906106da565b6020820181038252601f19601f820116604052509050600086886040516020016103919291906107c7565b604051602081830303815290604052805190602001209050808251602084016000f56040517fd13f90b400000000000000000000000000000000000000000000000000000000815290935073ffffffffffffffffffffffffffffffffffffffff84169063d13f90b490610410908a908c908b908b908b90600401610822565b600060405180830381600087803b15801561042a57600080fd5b505af115801561043e573d6000803e3d6000fd5b50505073ffffffffffffffffffffffffffffffffffffffff80891660008181526001602081815260408084208054968b167fffffffffffffffffffffffff00000000000000000000000000000000000000009788168117909155808552818520805488168717905594845260028252808420909152600380549283018155928390527fc2575a0e9e593c00f959f8c92f12db2869c3395a3b0502d05e2516446f71f85b9091018054909416909217909255905490517ff4c563a3ea86ff1f4275e8c207df0375a51963f2b831b7bf4da8be938d92876c9250610521918691610860565b60405180910390a1505095945050505050565b60005473ffffffffffffffffffffffffffffffffffffffff1690565b600260209081526000928352604080842090915290825290205473ffffffffffffffffffffffffffffffffffffffff1681565b60035490565b6105916106d6565b73ffffffffffffffffffffffffffffffffffffffff166105af610534565b73ffffffffffffffffffffffffffffffffffffffff16146105fc576040517f08c379a00000000000000000000000000000000000000000000000000000000081526004016101fb906108e3565b73ffffffffffffffffffffffffffffffffffffffff8116610649576040517f08c379a00000000000000000000000000000000000000000000000000000000081526004016101fb90610886565b6000805460405173ffffffffffffffffffffffffffffffffffffffff808516939216917f8be0079c531659141344cd1fd0a4f28419497f9722a3daafe3b4186f6b6457e091a3600080547fffffffffffffffffffffffff00000000000000000000000000000000000000001673ffffffffffffffffffffffffffffffffffffffff92909216919091179055565b3390565b6115428061095983390190565b803573ffffffffffffffffffffffffffffffffffffffff8116811461070b57600080fd5b919050565b600060208284031215610721578081fd5b61072a826106e7565b9392505050565b60008060408385031215610743578081fd5b61074c836106e7565b915061075a602084016106e7565b90509250929050565b600080600080600060a0868803121561077a578081fd5b610783866106e7565b9450610791602087016106e7565b94979496505050506040830135926060810135926080909101359150565b6000602082840312156107c0578081fd5b5035919050565b7fffffffffffffffffffffffffffffffffffffffff000000000000000000000000606093841b811682529190921b16601482015260280190565b73ffffffffffffffffffffffffffffffffffffffff91909116815260200190565b73ffffffffffffffffffffffffffffffffffffffff958616815293909416602084015260408301919091526060820152608081019190915260a00190565b73ffffffffffffffffffffffffffffffffffffffff929092168252602082015260400190565b60208082526026908201527f4f776e61626c653a206e6577206f776e657220697320746865207a65726f206160408201527f6464726573730000000000000000000000000000000000000000000000000000606082015260800190565b6020808252818101527f4f776e61626c653a2063616c6c6572206973206e6f7420746865206f776e6572604082015260600190565b6020808252601a908201527f417274656f6e506f6f6c3a204c495354494e475f455849535453000000000000604082015260600190565b9081526020019056fe608060405234801561001057600080fd5b50600061001b61006a565b600080546001600160a01b0319166001600160a01b0383169081178255604051929350917f8be0079c531659141344cd1fd0a4f28419497f9722a3daafe3b4186f6b6457e0908290a35061006e565b3390565b6114c58061007d6000396000f3fe608060405234801561001057600080fd5b50600436106101775760003560e01c80638c359f4b116100d8578063d13f90b41161008c578063d717a39311610066578063d717a3931461029b578063f2fde38b146102a3578063f9f680db146102b657610177565b8063d13f90b414610278578063d6f192621461028b578063d700933b1461029357610177565b80639e570729116100bd5780639e57072914610255578063c1a75d9e14610268578063c213f3f91461027057610177565b80638c359f4b1461023a5780638da5cb5b1461024d57610177565b806354cba1d11161012f5780636352211e116101145780636352211e146101ff57806370a082311461021f578063715018a61461023257610177565b806354cba1d1146101f75780635ee0aca0146101e557610177565b8063150b7a0211610160578063150b7a02146101c557806318160ddd146101e55780633d18b912146101ed57610177565b806301ffc9a71461017c5780630700037d146101a5575b600080fd5b61018f61018a366004611064565b6102be565b60405161019c9190611134565b60405180910390f35b6101b86101b3366004610f14565b610309565b60405161019c9190611383565b6101d86101d3366004610f2e565b610331565b60405161019c919061113f565b6101b861035a565b6101f5610361565b005b6101b8610479565b61021261020d3660046110a4565b61047f565b60405161019c91906110bc565b6101b861022d366004610f14565b6104ea565b6101f5610512565b6101f56102483660046110a4565b6105f4565b6102126106f9565b6101f56102633660046110a4565b610715565b6102126107fa565b6101b8610816565b6101f5610286366004611018565b61081c565b6101b8610896565b6101b86108a5565b6101b86108ab565b6101f56102b1366004610f14565b6108b1565b6102126109fe565b7fffffffff0000000000000000000000000000000000000000000000000000000081167f01ffc9a700000000000000000000000000000000000000000000000000000000145b919050565b73ffffffffffffffffffffffffffffffffffffffff166000908152600c602052604090205490565b7f150b7a0200000000000000000000000000000000000000000000000000000000949350505050565b6001545b90565b33600061036c610a1a565b905080156104755773ffffffffffffffffffffffffffffffffffffffff8083166000908152600c60205260408082209190915560055490517f40c10f190000000000000000000000000000000000000000000000000000000081529116906340c10f19906103e0908590859060040161110e565b600060405180830381600087803b1580156103fa57600080fd5b505af115801561040e573d6000803e3d6000fd5b50505073ffffffffffffffffffffffffffffffffffffffff83166000908152600d602052604090819020429055517f619caafabdd75649b302ba8419e48cccf64f37f1983ac4727cfb38b57703ffc9915061046c908490849061110e565b60405180910390a15b5050565b600a5490565b60008181526004602052604081205473ffffffffffffffffffffffffffffffffffffffff16806104e4576040517f08c379a00000000000000000000000000000000000000000000000000000000081526004016104db90611200565b60405180910390fd5b92915050565b73ffffffffffffffffffffffffffffffffffffffff1660009081526003602052604090205490565b61051a610b27565b73ffffffffffffffffffffffffffffffffffffffff166105386106f9565b73ffffffffffffffffffffffffffffffffffffffff1614610585576040517f08c379a00000000000000000000000000000000000000000000000000000000081526004016104db9061125d565b6000805460405173ffffffffffffffffffffffffffffffffffffffff909116907f8be0079c531659141344cd1fd0a4f28419497f9722a3daafe3b4186f6b6457e0908390a3600080547fffffffffffffffffffffffff0000000000000000000000000000000000000000169055565b336000818152600360205260409020541561061157610611610361565b6006546040517f42842e0e00000000000000000000000000000000000000000000000000000000815273ffffffffffffffffffffffffffffffffffffffff909116906342842e0e9061066b908490309087906004016110dd565b600060405180830381600087803b15801561068557600080fd5b505af1158015610699573d6000803e3d6000fd5b505050506106a78183610b2b565b8073ffffffffffffffffffffffffffffffffffffffff167ffbd0a3f6e9a0dd5f834515748047e83de8064477489a0a0d6b59c64bbecc992a836040516106ed9190611383565b60405180910390a25050565b60005473ffffffffffffffffffffffffffffffffffffffff1690565b61071d610361565b336107288183610cca565b6006546040517f42842e0e00000000000000000000000000000000000000000000000000000000815273ffffffffffffffffffffffffffffffffffffffff909116906342842e0e90610782903090859087906004016110dd565b600060405180830381600087803b15801561079c57600080fd5b505af11580156107b0573d6000803e3d6000fd5b505050508073ffffffffffffffffffffffffffffffffffffffff167f13b865880a841dc469b629159fa1e730fee99568b0decc6737fd688b36246381836040516106ed9190611383565b60065473ffffffffffffffffffffffffffffffffffffffff1681565b60085490565b6005805473ffffffffffffffffffffffffffffffffffffffff8088167fffffffffffffffffffffffff000000000000000000000000000000000000000092831617909255600680549287169290911691909117905560078390556008829055600a8190554361088b8183610e68565b600b55505050505050565b60006108a0610a1a565b905090565b600b5490565b60095490565b6108b9610b27565b73ffffffffffffffffffffffffffffffffffffffff166108d76106f9565b73ffffffffffffffffffffffffffffffffffffffff1614610924576040517f08c379a00000000000000000000000000000000000000000000000000000000081526004016104db9061125d565b73ffffffffffffffffffffffffffffffffffffffff8116610971576040517f08c379a00000000000000000000000000000000000000000000000000000000081526004016104db9061116c565b6000805460405173ffffffffffffffffffffffffffffffffffffffff808516939216917f8be0079c531659141344cd1fd0a4f28419497f9722a3daafe3b4186f6b6457e091a3600080547fffffffffffffffffffffffff00000000000000000000000000000000000000001673ffffffffffffffffffffffffffffffffffffffff92909216919091179055565b60055473ffffffffffffffffffffffffffffffffffffffff1681565b336000818152600d6020526040812054600754919291610a3a908261138c565b421115610afc576000610a4d824261141a565b73ffffffffffffffffffffffffffffffffffffffff841660009081526003602052604081205491925090610a7f610e7b565b610a8991906113dd565b9050610a9582826113dd565b73ffffffffffffffffffffffffffffffffffffffff85166000908152600c6020526040902054610ac5919061138c565b73ffffffffffffffffffffffffffffffffffffffff85166000908152600c6020908152604080832093909355600d90522042905550505b5073ffffffffffffffffffffffffffffffffffffffff166000908152600c6020526040902054905090565b3390565b610b4a8273ffffffffffffffffffffffffffffffffffffffff16610ea0565b15610b81576040517f08c379a00000000000000000000000000000000000000000000000000000000081526004016104db906111c9565b3273ffffffffffffffffffffffffffffffffffffffff831614610bd0576040517f08c379a00000000000000000000000000000000000000000000000000000000081526004016104db906111c9565b60008111610c0a576040517f08c379a00000000000000000000000000000000000000000000000000000000081526004016104db90611326565b60018054610c1791610e68565b600190815573ffffffffffffffffffffffffffffffffffffffff8316600090815260036020526040902054610c4b91610e68565b73ffffffffffffffffffffffffffffffffffffffff83166000818152600360209081526040808320949094558482526004815283822080547fffffffffffffffffffffffff00000000000000000000000000000000000000001684179055918152600d90915220429055610cbd610ea6565b610cc5610e7b565b505050565b60008111610d04576040517f08c379a00000000000000000000000000000000000000000000000000000000081526004016104db90611292565b60008181526004602052604090205473ffffffffffffffffffffffffffffffffffffffff838116911614610d64576040517f08c379a00000000000000000000000000000000000000000000000000000000081526004016104db906112ef565b60018054610d7191610ed8565b600190815573ffffffffffffffffffffffffffffffffffffffff8316600090815260036020526040902054610da591610ed8565b73ffffffffffffffffffffffffffffffffffffffff8316600090815260036020908152604080832093909355838252600490522080547fffffffffffffffffffffffff0000000000000000000000000000000000000000169055610e08826104ea565b610e375773ffffffffffffffffffffffffffffffffffffffff82166000908152600d6020526040812055610e60565b73ffffffffffffffffffffffffffffffffffffffff82166000908152600d602052604090204290555b610cbd610ea6565b6000610e74828461138c565b9392505050565b600060015460001415610e905750600061035e565b6001546008546108a091906113a4565b3b151590565b600b544390811115610ed557600a54610ec0908290610e68565b600b55600854610ed1906002610ee4565b6008555b50565b6000610e74828461141a565b6000610e7482846113a4565b803573ffffffffffffffffffffffffffffffffffffffff8116811461030457600080fd5b600060208284031215610f25578081fd5b610e7482610ef0565b60008060008060808587031215610f43578283fd5b610f4c85610ef0565b93506020610f5b818701610ef0565b935060408601359250606086013567ffffffffffffffff80821115610f7e578384fd5b818801915088601f830112610f91578384fd5b813581811115610fa357610fa3611460565b604051847fffffffffffffffffffffffffffffffffffffffffffffffffffffffffffffffe0601f8401168201018181108482111715610fe457610fe4611460565b60405281815283820185018b1015610ffa578586fd5b81858501868301379081019093019390935250939692955090935050565b600080600080600060a0868803121561102f578081fd5b61103886610ef0565b945061104660208701610ef0565b94979496505050506040830135926060810135926080909101359150565b600060208284031215611075578081fd5b81357fffffffff0000000000000000000000000000000000000000000000000000000081168114610e74578182fd5b6000602082840312156110b5578081fd5b5035919050565b73ffffffffffffffffffffffffffffffffffffffff91909116815260200190565b73ffffffffffffffffffffffffffffffffffffffff9384168152919092166020820152604081019190915260600190565b73ffffffffffffffffffffffffffffffffffffffff929092168252602082015260400190565b901515815260200190565b7fffffffff0000000000000000000000000000000000000000000000000000000091909116815260200190565b60208082526026908201527f4f776e61626c653a206e6577206f776e657220697320746865207a65726f206160408201527f6464726573730000000000000000000000000000000000000000000000000000606082015260800190565b60208082526008908201527f5265717569726564000000000000000000000000000000000000000000000000604082015260600190565b60208082526029908201527f4552433732313a206f776e657220717565727920666f72206e6f6e657869737460408201527f656e7420746f6b656e0000000000000000000000000000000000000000000000606082015260800190565b6020808252818101527f4f776e61626c653a2063616c6c6572206973206e6f7420746865206f776e6572604082015260600190565b60208082526027908201527f596f75206e65656420746f2064656163746976617465206174206c656173742060408201527f6f6e652047505500000000000000000000000000000000000000000000000000606082015260800190565b6020808252601c908201527f417274656f6e4d696e65723a204e4f545f544f4b454e5f4f574e455200000000604082015260600190565b60208082526025908201527f596f75206e65656420746f206163746976617465206174206c65617374206f6e60408201527f6520475055000000000000000000000000000000000000000000000000000000606082015260800190565b90815260200190565b6000821982111561139f5761139f611431565b500190565b6000826113d8577f4e487b710000000000000000000000000000000000000000000000000000000081526012600452602481fd5b500490565b6000817fffffffffffffffffffffffffffffffffffffffffffffffffffffffffffffffff048311821515161561141557611415611431565b500290565b60008282101561142c5761142c611431565b500390565b7f4e487b7100000000000000000000000000000000000000000000000000000000600052601160045260246000fd5b7f4e487b7100000000000000000000000000000000000000000000000000000000600052604160045260246000fdfea2646970667358221220afbc2bed3d18be53c39c14704252b31673e52a77c74d2e33676e5b059bac3c5664736f6c63430008000033a26469706673582212201339a29813f6e0297ac7dbc2470fb5d75742965f487673f769513d13e0d74ce364736f6c63430008000033",
  "immutableReferences": {},
  "source": "pragma solidity ^0.8.0;\r\n\r\nimport './../miner/ArteonMiner.sol';\r\nimport './../miner/interfaces/IArteonMiner.sol';\r\nimport './../../node_modules/@openzeppelin/contracts/access/Ownable.sol';\r\n\r\ncontract ArteonPoolFactory is Ownable {\r\n  mapping (address => address) public getToken;\r\n  mapping (address => mapping (address => address)) public getListed;\r\n  address[] public listedTokens;\r\n  event TokenAdded(address listedToken, uint);\r\n\r\n  function tokens() external view returns (uint) {\r\n    return listedTokens.length;\r\n  }\r\n\r\n  function addToken(address gpu, address token, uint256 blockTime, uint256 maxReward, uint256 halvings) external onlyOwner returns (address listedToken) {\r\n    require(getListed[token][gpu] == address(0), 'ArteonPool: LISTING_EXISTS');\r\n    // require(IERC20(token).owner() == msg.sender, 'ArteonPool: NOT_AN_OWNER');\r\n\r\n    bytes memory bytecode = type(ArteonMiner).creationCode;\r\n    bytes32 salt = keccak256(abi.encodePacked(token, gpu));\r\n    assembly {\r\n      listedToken := create2(0, add(bytecode, 32), mload(bytecode), salt)\r\n    }\r\n\r\n    IArteonMiner(listedToken).initialize(token, gpu, blockTime, maxReward, halvings);\r\n    getToken[token] = listedToken;\r\n    getToken[listedToken] = token;\r\n    getListed[token][gpu];\r\n    listedTokens.push(listedToken);\r\n\r\n    emit TokenAdded(listedToken, listedTokens.length);\r\n    return listedToken;\r\n  }\r\n}\r\n",
  "sourcePath": "D:/Workspace/Arteon/monorepo/contracts/pools/ArteonPoolFactory.sol",
  "compiler": {
    "name": "solc",
    "version": "0.8.0+commit.c7dfd78e.Emscripten.clang"
  },
  "schemaVersion": "3.3.4",
  "updatedAt": "2021-07-12T20:25:37.176Z",
  "networkType": "ethereum",
  "devdoc": {
    "kind": "dev",
    "methods": {
      "owner()": {
        "details": "Returns the address of the current owner."
      },
      "renounceOwnership()": {
        "details": "Leaves the contract without owner. It will not be possible to call `onlyOwner` functions anymore. Can only be called by the current owner. NOTE: Renouncing ownership will leave the contract without an owner, thereby removing any functionality that is only available to the owner."
      },
      "transferOwnership(address)": {
        "details": "Transfers ownership of the contract to a new account (`newOwner`). Can only be called by the current owner."
      }
    },
    "version": 1
  },
  "userdoc": {
    "kind": "user",
    "methods": {},
    "version": 1
  }
}