{
  "contractName": "ArteonMiner",
  "abi": [
    {
      "inputs": [
        {
          "internalType": "address",
          "name": "token",
          "type": "address"
        },
        {
          "internalType": "address",
          "name": "gpu",
          "type": "address"
        }
      ],
      "stateMutability": "nonpayable",
      "type": "constructor"
    },
    {
      "anonymous": false,
      "inputs": [
        {
          "indexed": true,
          "internalType": "address",
          "name": "user",
          "type": "address"
        },
        {
          "indexed": false,
          "internalType": "uint256",
          "name": "amount",
          "type": "uint256"
        }
      ],
      "name": "ActiveCards",
      "type": "event"
    },
    {
      "anonymous": false,
      "inputs": [
        {
          "indexed": true,
          "internalType": "address",
          "name": "user",
          "type": "address"
        },
        {
          "indexed": false,
          "internalType": "uint256",
          "name": "amount",
          "type": "uint256"
        }
      ],
      "name": "Deactivated",
      "type": "event"
    },
    {
      "anonymous": false,
      "inputs": [
        {
          "indexed": true,
          "internalType": "address",
          "name": "previousOwner",
          "type": "address"
        },
        {
          "indexed": true,
          "internalType": "address",
          "name": "newOwner",
          "type": "address"
        }
      ],
      "name": "OwnershipTransferred",
      "type": "event"
    },
    {
      "anonymous": false,
      "inputs": [
        {
          "indexed": false,
          "internalType": "uint256",
          "name": "reward",
          "type": "uint256"
        }
      ],
      "name": "RewardAdded",
      "type": "event"
    },
    {
      "anonymous": false,
      "inputs": [
        {
          "indexed": true,
          "internalType": "address",
          "name": "user",
          "type": "address"
        },
        {
          "indexed": false,
          "internalType": "uint256",
          "name": "reward",
          "type": "uint256"
        }
      ],
      "name": "RewardPaid",
      "type": "event"
    },
    {
      "inputs": [],
      "name": "ARTEON_GPU",
      "outputs": [
        {
          "internalType": "contract ArteonGPU",
          "name": "",
          "type": "address"
        }
      ],
      "stateMutability": "view",
      "type": "function"
    },
    {
      "inputs": [],
      "name": "ARTEON_TOKEN",
      "outputs": [
        {
          "internalType": "contract Arteon",
          "name": "",
          "type": "address"
        }
      ],
      "stateMutability": "view",
      "type": "function"
    },
    {
      "inputs": [],
      "name": "DURATION",
      "outputs": [
        {
          "internalType": "uint256",
          "name": "",
          "type": "uint256"
        }
      ],
      "stateMutability": "view",
      "type": "function"
    },
    {
      "inputs": [],
      "name": "initreward",
      "outputs": [
        {
          "internalType": "uint256",
          "name": "",
          "type": "uint256"
        }
      ],
      "stateMutability": "view",
      "type": "function"
    },
    {
      "inputs": [],
      "name": "lastUpdateTime",
      "outputs": [
        {
          "internalType": "uint256",
          "name": "",
          "type": "uint256"
        }
      ],
      "stateMutability": "view",
      "type": "function"
    },
    {
      "inputs": [
        {
          "internalType": "address",
          "name": "",
          "type": "address"
        },
        {
          "internalType": "address",
          "name": "",
          "type": "address"
        },
        {
          "internalType": "uint256",
          "name": "",
          "type": "uint256"
        },
        {
          "internalType": "bytes",
          "name": "",
          "type": "bytes"
        }
      ],
      "name": "onERC721Received",
      "outputs": [
        {
          "internalType": "bytes4",
          "name": "",
          "type": "bytes4"
        }
      ],
      "stateMutability": "nonpayable",
      "type": "function"
    },
    {
      "inputs": [],
      "name": "owner",
      "outputs": [
        {
          "internalType": "address",
          "name": "",
          "type": "address"
        }
      ],
      "stateMutability": "view",
      "type": "function"
    },
    {
      "inputs": [],
      "name": "periodFinish",
      "outputs": [
        {
          "internalType": "uint256",
          "name": "",
          "type": "uint256"
        }
      ],
      "stateMutability": "view",
      "type": "function"
    },
    {
      "inputs": [],
      "name": "renounceOwnership",
      "outputs": [],
      "stateMutability": "nonpayable",
      "type": "function"
    },
    {
      "inputs": [],
      "name": "rewardPerTokenStored",
      "outputs": [
        {
          "internalType": "uint256",
          "name": "",
          "type": "uint256"
        }
      ],
      "stateMutability": "view",
      "type": "function"
    },
    {
      "inputs": [],
      "name": "rewardRate",
      "outputs": [
        {
          "internalType": "uint256",
          "name": "",
          "type": "uint256"
        }
      ],
      "stateMutability": "view",
      "type": "function"
    },
    {
      "inputs": [
        {
          "internalType": "address",
          "name": "",
          "type": "address"
        }
      ],
      "name": "rewards",
      "outputs": [
        {
          "internalType": "uint256",
          "name": "",
          "type": "uint256"
        }
      ],
      "stateMutability": "view",
      "type": "function"
    },
    {
      "inputs": [],
      "name": "starttime",
      "outputs": [
        {
          "internalType": "uint256",
          "name": "",
          "type": "uint256"
        }
      ],
      "stateMutability": "view",
      "type": "function"
    },
    {
      "inputs": [
        {
          "internalType": "bytes4",
          "name": "interfaceId",
          "type": "bytes4"
        }
      ],
      "name": "supportsInterface",
      "outputs": [
        {
          "internalType": "bool",
          "name": "",
          "type": "bool"
        }
      ],
      "stateMutability": "view",
      "type": "function"
    },
    {
      "inputs": [
        {
          "internalType": "address",
          "name": "newOwner",
          "type": "address"
        }
      ],
      "name": "transferOwnership",
      "outputs": [],
      "stateMutability": "nonpayable",
      "type": "function"
    },
    {
      "inputs": [
        {
          "internalType": "address",
          "name": "",
          "type": "address"
        }
      ],
      "name": "userRewardPerTokenPaid",
      "outputs": [
        {
          "internalType": "uint256",
          "name": "",
          "type": "uint256"
        }
      ],
      "stateMutability": "view",
      "type": "function"
    },
    {
      "inputs": [],
      "name": "miners",
      "outputs": [
        {
          "internalType": "uint256",
          "name": "",
          "type": "uint256"
        }
      ],
      "stateMutability": "view",
      "type": "function"
    },
    {
      "inputs": [
        {
          "internalType": "uint256",
          "name": "tokenId",
          "type": "uint256"
        }
      ],
      "name": "ownerOf",
      "outputs": [
        {
          "internalType": "address",
          "name": "",
          "type": "address"
        }
      ],
      "stateMutability": "view",
      "type": "function"
    },
    {
      "inputs": [],
      "name": "lastTimeRewardApplicable",
      "outputs": [
        {
          "internalType": "uint256",
          "name": "",
          "type": "uint256"
        }
      ],
      "stateMutability": "view",
      "type": "function"
    },
    {
      "inputs": [],
      "name": "rewardPerToken",
      "outputs": [
        {
          "internalType": "uint256",
          "name": "",
          "type": "uint256"
        }
      ],
      "stateMutability": "view",
      "type": "function"
    },
    {
      "inputs": [
        {
          "internalType": "address",
          "name": "account",
          "type": "address"
        }
      ],
      "name": "earned",
      "outputs": [
        {
          "internalType": "uint256",
          "name": "",
          "type": "uint256"
        }
      ],
      "stateMutability": "view",
      "type": "function"
    },
    {
      "inputs": [],
      "name": "totalSupply",
      "outputs": [
        {
          "internalType": "uint256",
          "name": "",
          "type": "uint256"
        }
      ],
      "stateMutability": "view",
      "type": "function"
    },
    {
      "inputs": [
        {
          "internalType": "address",
          "name": "account",
          "type": "address"
        }
      ],
      "name": "balanceOf",
      "outputs": [
        {
          "internalType": "uint256",
          "name": "",
          "type": "uint256"
        }
      ],
      "stateMutability": "view",
      "type": "function"
    },
    {
      "inputs": [
        {
          "internalType": "uint256",
          "name": "tokenId",
          "type": "uint256"
        }
      ],
      "name": "mine",
      "outputs": [],
      "stateMutability": "nonpayable",
      "type": "function"
    },
    {
      "inputs": [
        {
          "internalType": "uint256",
          "name": "tokenId",
          "type": "uint256"
        }
      ],
      "name": "deactivate_gpu",
      "outputs": [],
      "stateMutability": "nonpayable",
      "type": "function"
    },
    {
      "inputs": [],
      "name": "getReward",
      "outputs": [],
      "stateMutability": "nonpayable",
      "type": "function"
    },
    {
      "inputs": [
        {
          "internalType": "uint256",
          "name": "reward",
          "type": "uint256"
        }
      ],
      "name": "notifyRewardAmount",
      "outputs": [],
      "stateMutability": "nonpayable",
      "type": "function"
    }
  ],
  "bytecode": "0x608060405268878678326eac9000006003556360a9145a600455600060055560006006553480156200003057600080fd5b5060405162001cd138038062001cd18339810160408190526200005391620000fc565b60006200005f620000db565b600080546001600160a01b0319166001600160a01b0383169081178255604051929350917f8be0079c531659141344cd1fd0a4f28419497f9722a3daafe3b4186f6b6457e0908290a350600180546001600160a01b039384166001600160a01b0319918216179091556002805492909316911617905562000133565b3390565b80516001600160a01b0381168114620000f757600080fd5b919050565b600080604083850312156200010f578182fd5b6200011a83620000df565b91506200012a60208401620000df565b90509250929050565b611b8e80620001436000396000f3fe608060405234801561001057600080fd5b50600436106101b85760003560e01c80637b0a47ee116100f9578063c1a75d9e11610097578063df136d6511610071578063df136d6514610322578063ebe2b12b1461032a578063f2fde38b14610332578063f9f680db14610345576101b8565b8063c1a75d9e1461030a578063c8f33c9114610312578063cd3daf9d1461031a576101b8565b80638da58897116100d35780638da58897146102df5780638da5cb5b146102e75780639c907b58146102ef578063a76b4b37146102f7576101b8565b80637b0a47ee146102bc57806380faa57d146102c45780638b876347146102cc576101b8565b80633c6b16ab116101665780635ee0aca0116101405780635ee0aca0146102795780636352211e1461028157806370a08231146102a1578063715018a6146102b4576101b8565b80633c6b16ab146102495780633d18b9121461025e5780634d47489814610266576101b8565b8063150b7a0211610197578063150b7a021461021957806318160ddd146102395780631be0528914610241576101b8565b80628cc262146101bd57806301ffc9a7146101e65780630700037d14610206575b600080fd5b6101d06101cb3660046114cb565b61034d565b6040516101dd91906119b2565b60405180910390f35b6101f96101f43660046115ef565b6103ca565b6040516101dd91906116db565b6101d06102143660046114cb565b610414565b61022c6102273660046114e5565b610426565b6040516101dd91906116e6565b6101d061044f565b6101d0610456565b61025c61025736600461162f565b61045d565b005b61025c610601565b61025c61027436600461162f565b610823565b6101d0610a31565b61029461028f36600461162f565b610a37565b6040516101dd9190611663565b6101d06102af3660046114cb565b610a93565b61025c610abb565b6101d0610b9d565b6101d0610ba3565b6101d06102da3660046114cb565b610bb6565b6101d0610bc8565b610294610bce565b6101d0610bea565b61025c61030536600461162f565b610bf0565b610294610cb4565b6101d0610cd0565b6101d0610cd6565b6101d0610d24565b6101d0610d2a565b61025c6103403660046114cb565b610d30565b610294610e7d565b73ffffffffffffffffffffffffffffffffffffffff81166000908152600b6020908152604080832054600a9092528220546103c291906103bc90670de0b6b3a7640000906103b6906103a7906103a1610cd6565b90610e99565b6103b088610a93565b90610eac565b90610eb8565b90610ec4565b90505b919050565b7fffffffff0000000000000000000000000000000000000000000000000000000081167f01ffc9a70000000000000000000000000000000000000000000000000000000014919050565b600b6020526000908152604090205481565b7f150b7a0200000000000000000000000000000000000000000000000000000000949350505050565b6009545b90565b6202a30081565b610465610ed0565b73ffffffffffffffffffffffffffffffffffffffff16610483610bce565b73ffffffffffffffffffffffffffffffffffffffff16146104d9576040517f08c379a00000000000000000000000000000000000000000000000000000000081526004016104d0906118e9565b60405180910390fd5b60006104e3610cd6565b6008556104ee610ba3565b60075573ffffffffffffffffffffffffffffffffffffffff81161561054f576105168161034d565b73ffffffffffffffffffffffffffffffffffffffff82166000908152600b6020908152604080832093909355600854600a909152919020555b600554421061056d57610565826202a300610eb8565b6006556105af565b60055460009061057d9042610e99565b9050600061059660065483610eac90919063ffffffff16565b90506105a96202a3006103b68684610ec4565b60065550505b4260078190556105c2906202a300610ec4565b6005556040517fde88a922e0d3b88b24e9623efeb464919c6bf9f66857a65e2bfcf2ce87a9433d906105f59084906119b2565b60405180910390a15050565b3361060a610cd6565b600855610615610ba3565b60075573ffffffffffffffffffffffffffffffffffffffff8116156106765761063d8161034d565b73ffffffffffffffffffffffffffffffffffffffff82166000908152600b6020908152604080832093909355600854600a909152919020555b60055442106107855761069a60646103b66032600354610eac90919063ffffffff16565b60038190556001546040517f40c10f1900000000000000000000000000000000000000000000000000000000815273ffffffffffffffffffffffffffffffffffffffff909116916340c10f19916106f59130916004016116b5565b600060405180830381600087803b15801561070f57600080fd5b505af1158015610723573d6000803e3d6000fd5b5050600354610738925090506202a300610eb8565b600655610748426202a300610ec4565b6005556003546040517fde88a922e0d3b88b24e9623efeb464919c6bf9f66857a65e2bfcf2ce87a9433d9161077c916119b2565b60405180910390a15b60006107903361034d565b9050801561081f57336000818152600b60205260408120556001546107d09173ffffffffffffffffffffffffffffffffffffffff90911690309084610ed4565b3373ffffffffffffffffffffffffffffffffffffffff167fe2403640ba68fed3a2f88b7557551d1993f84b99bb10ff833f0cf8db0c5e04868260405161081691906119b2565b60405180910390a25b5050565b3361082c610cd6565b600855610837610ba3565b60075573ffffffffffffffffffffffffffffffffffffffff8116156108985761085f8161034d565b73ffffffffffffffffffffffffffffffffffffffff82166000908152600b6020908152604080832093909355600854600a909152919020555b60055442106109a7576108bc60646103b66032600354610eac90919063ffffffff16565b60038190556001546040517f40c10f1900000000000000000000000000000000000000000000000000000000815273ffffffffffffffffffffffffffffffffffffffff909116916340c10f19916109179130916004016116b5565b600060405180830381600087803b15801561093157600080fd5b505af1158015610945573d6000803e3d6000fd5b505060035461095a925090506202a300610eb8565b60065561096a426202a300610ec4565b6005556003546040517fde88a922e0d3b88b24e9623efeb464919c6bf9f66857a65e2bfcf2ce87a9433d9161099e916119b2565b60405180910390a15b60045442116109e2576040517f08c379a00000000000000000000000000000000000000000000000000000000081526004016104d090611764565b6109eb82610f7d565b3373ffffffffffffffffffffffffffffffffffffffff167f98f98eb483cc4090a02b8e00da9c4b8aec2fcd048847d9d91d066b37933228828360405161081691906119b2565b60105490565b6000818152600e602052604081205473ffffffffffffffffffffffffffffffffffffffff16806103c2576040517f08c379a00000000000000000000000000000000000000000000000000000000081526004016104d09061188c565b73ffffffffffffffffffffffffffffffffffffffff166000908152600c602052604090205490565b610ac3610ed0565b73ffffffffffffffffffffffffffffffffffffffff16610ae1610bce565b73ffffffffffffffffffffffffffffffffffffffff1614610b2e576040517f08c379a00000000000000000000000000000000000000000000000000000000081526004016104d0906118e9565b6000805460405173ffffffffffffffffffffffffffffffffffffffff909116907f8be0079c531659141344cd1fd0a4f28419497f9722a3daafe3b4186f6b6457e0908390a3600080547fffffffffffffffffffffffff0000000000000000000000000000000000000000169055565b60065481565b6000610bb142600554611151565b905090565b600a6020526000908152604090205481565b60045481565b60005473ffffffffffffffffffffffffffffffffffffffff1690565b60035481565b33610bf9610cd6565b600855610c04610ba3565b60075573ffffffffffffffffffffffffffffffffffffffff811615610c6557610c2c8161034d565b73ffffffffffffffffffffffffffffffffffffffff82166000908152600b6020908152604080832093909355600854600a909152919020555b610c6e82611167565b3373ffffffffffffffffffffffffffffffffffffffff167ff1681b67f8ed47d1df9df340c01835c6d39c7e3b1c49cb665517b1dcac4789e18360405161081691906119b2565b60025473ffffffffffffffffffffffffffffffffffffffff1681565b60075481565b6000610ce061044f565b610ced5750600854610453565b610bb1610d1b610cfb61044f565b6103b6670de0b6b3a76400006103b06006546103b06007546103a1610ba3565b60085490610ec4565b60085481565b60055481565b610d38610ed0565b73ffffffffffffffffffffffffffffffffffffffff16610d56610bce565b73ffffffffffffffffffffffffffffffffffffffff1614610da3576040517f08c379a00000000000000000000000000000000000000000000000000000000081526004016104d0906118e9565b73ffffffffffffffffffffffffffffffffffffffff8116610df0576040517f08c379a00000000000000000000000000000000000000000000000000000000081526004016104d09061179b565b6000805460405173ffffffffffffffffffffffffffffffffffffffff808516939216917f8be0079c531659141344cd1fd0a4f28419497f9722a3daafe3b4186f6b6457e091a3600080547fffffffffffffffffffffffff00000000000000000000000000000000000000001673ffffffffffffffffffffffffffffffffffffffff92909216919091179055565b60015473ffffffffffffffffffffffffffffffffffffffff1681565b6000610ea58284611a49565b9392505050565b6000610ea58284611a0c565b6000610ea582846119d3565b6000610ea582846119bb565b3390565b610f77846323b872dd60e01b858585604051602401610ef593929190611684565b604080517fffffffffffffffffffffffffffffffffffffffffffffffffffffffffffffffe08184030181529190526020810180517bffffffffffffffffffffffffffffffffffffffffffffffffffffffff167fffffffff000000000000000000000000000000000000000000000000000000009093169290921790915261127b565b50505050565b33610f8781611336565b15610fbe576040517f08c379a00000000000000000000000000000000000000000000000000000000081526004016104d090611855565b3273ffffffffffffffffffffffffffffffffffffffff82161461100d576040517f08c379a00000000000000000000000000000000000000000000000000000000081526004016104d090611855565b60095461101b906001610ec4565b60095573ffffffffffffffffffffffffffffffffffffffff81166000908152600c602052604090205461104f906001610ec4565b73ffffffffffffffffffffffffffffffffffffffff82166000818152600c6020908152604080832094909455858252600e905291822080547fffffffffffffffffffffffff000000000000000000000000000000000000000016909117905560108054916110bc83611ac1565b90915550506002546040517f42842e0e00000000000000000000000000000000000000000000000000000000815273ffffffffffffffffffffffffffffffffffffffff909116906342842e0e9061111b90849030908790600401611684565b600060405180830381600087803b15801561113557600080fd5b505af1158015611149573d6000803e3d6000fd5b505050505050565b60008183106111605781610ea5565b5090919050565b600954611175906001610e99565b600955336000908152600c6020526040902054611193906001610e99565b336000908152600c6020908152604080832093909355838252600e905290812080547fffffffffffffffffffffffff000000000000000000000000000000000000000016905560108054916111e783611a8c565b90915550506002546040517f42842e0e00000000000000000000000000000000000000000000000000000000815273ffffffffffffffffffffffffffffffffffffffff909116906342842e0e9061124690309033908690600401611684565b600060405180830381600087803b15801561126057600080fd5b505af1158015611274573d6000803e3d6000fd5b5050505050565b60006112dd826040518060400160405280602081526020017f5361666545524332303a206c6f772d6c6576656c2063616c6c206661696c65648152508573ffffffffffffffffffffffffffffffffffffffff1661133c9092919063ffffffff16565b80519091501561133157808060200190518101906112fb91906115cf565b611331576040517f08c379a00000000000000000000000000000000000000000000000000000000081526004016104d090611955565b505050565b3b151590565b606061134b8484600085611353565b949350505050565b60608247101561138f576040517f08c379a00000000000000000000000000000000000000000000000000000000081526004016104d0906117f8565b61139885611336565b6113ce576040517f08c379a00000000000000000000000000000000000000000000000000000000081526004016104d09061191e565b6000808673ffffffffffffffffffffffffffffffffffffffff1685876040516113f79190611647565b60006040518083038185875af1925050503d8060008114611434576040519150601f19603f3d011682016040523d82523d6000602084013e611439565b606091505b5091509150611449828286611454565b979650505050505050565b60608315611463575081610ea5565b8251156114735782518084602001fd5b816040517f08c379a00000000000000000000000000000000000000000000000000000000081526004016104d09190611713565b803573ffffffffffffffffffffffffffffffffffffffff811681146103c557600080fd5b6000602082840312156114dc578081fd5b610ea5826114a7565b600080600080608085870312156114fa578283fd5b611503856114a7565b935060206115128187016114a7565b935060408601359250606086013567ffffffffffffffff80821115611535578384fd5b818801915088601f830112611548578384fd5b81358181111561155a5761155a611b29565b604051847fffffffffffffffffffffffffffffffffffffffffffffffffffffffffffffffe0601f840116820101818110848211171561159b5761159b611b29565b60405281815283820185018b10156115b1578586fd5b81858501868301379081019093019390935250939692955090935050565b6000602082840312156115e0578081fd5b81518015158114610ea5578182fd5b600060208284031215611600578081fd5b81357fffffffff0000000000000000000000000000000000000000000000000000000081168114610ea5578182fd5b600060208284031215611640578081fd5b5035919050565b60008251611659818460208701611a60565b9190910192915050565b73ffffffffffffffffffffffffffffffffffffffff91909116815260200190565b73ffffffffffffffffffffffffffffffffffffffff9384168152919092166020820152604081019190915260600190565b73ffffffffffffffffffffffffffffffffffffffff929092168252602082015260400190565b901515815260200190565b7fffffffff0000000000000000000000000000000000000000000000000000000091909116815260200190565b6000602082528251806020840152611732816040850160208701611a60565b601f017fffffffffffffffffffffffffffffffffffffffffffffffffffffffffffffffe0169190910160400192915050565b60208082526009908201527f6e6f742073746172740000000000000000000000000000000000000000000000604082015260600190565b60208082526026908201527f4f776e61626c653a206e6577206f776e657220697320746865207a65726f206160408201527f6464726573730000000000000000000000000000000000000000000000000000606082015260800190565b60208082526026908201527f416464726573733a20696e73756666696369656e742062616c616e636520666f60408201527f722063616c6c0000000000000000000000000000000000000000000000000000606082015260800190565b60208082526008908201527f5265717569726564000000000000000000000000000000000000000000000000604082015260600190565b60208082526029908201527f4552433732313a206f776e657220717565727920666f72206e6f6e657869737460408201527f656e7420746f6b656e0000000000000000000000000000000000000000000000606082015260800190565b6020808252818101527f4f776e61626c653a2063616c6c6572206973206e6f7420746865206f776e6572604082015260600190565b6020808252601d908201527f416464726573733a2063616c6c20746f206e6f6e2d636f6e7472616374000000604082015260600190565b6020808252602a908201527f5361666545524332303a204552433230206f7065726174696f6e20646964206e60408201527f6f74207375636365656400000000000000000000000000000000000000000000606082015260800190565b90815260200190565b600082198211156119ce576119ce611afa565b500190565b600082611a07577f4e487b710000000000000000000000000000000000000000000000000000000081526012600452602481fd5b500490565b6000817fffffffffffffffffffffffffffffffffffffffffffffffffffffffffffffffff0483118215151615611a4457611a44611afa565b500290565b600082821015611a5b57611a5b611afa565b500390565b60005b83811015611a7b578181015183820152602001611a63565b83811115610f775750506000910152565b600081611a9b57611a9b611afa565b507fffffffffffffffffffffffffffffffffffffffffffffffffffffffffffffffff0190565b60007fffffffffffffffffffffffffffffffffffffffffffffffffffffffffffffffff821415611af357611af3611afa565b5060010190565b7f4e487b7100000000000000000000000000000000000000000000000000000000600052601160045260246000fd5b7f4e487b7100000000000000000000000000000000000000000000000000000000600052604160045260246000fdfea2646970667358221220ba55ced023176851a3c0018d657ca88841c6fa6a0159327a530dc0b11d28890364736f6c63430008000033",
  "immutableReferences": {},
  "source": "pragma solidity ^0.8.0;\r\n\r\nimport './../../node_modules/@openzeppelin/contracts/utils/math/SafeMath.sol';\r\nimport './../../node_modules/@openzeppelin/contracts/utils/Strings.sol';\r\nimport './../../node_modules/@openzeppelin/contracts/utils/Address.sol';\r\nimport './../../node_modules/@openzeppelin/contracts/utils/math/Math.sol';\r\nimport './../../node_modules/@openzeppelin/contracts/token/ERC20/utils/SafeERC20.sol';\r\nimport './../../node_modules/@openzeppelin/contracts/utils/introspection/ERC165.sol';\r\nimport './../../node_modules/@openzeppelin/contracts/token/ERC721/IERC721.sol';\r\nimport './../../node_modules/@openzeppelin/contracts/token/ERC721/IERC721Receiver.sol';\r\nimport './../../node_modules/@openzeppelin/contracts/token/ERC721/utils/ERC721Holder.sol';\r\nimport './../../node_modules/@openzeppelin/contracts/access/Ownable.sol';\r\nimport './../../node_modules/@openzeppelin/contracts/utils/Context.sol';\r\nimport './../gpu/ArteonGPU.sol';\r\nimport './../token/Arteon.sol';\r\n\r\ncontract ArteonMiner is Context, ERC165, ERC721Holder, Ownable {\r\n  using SafeMath for uint256;\r\n  using Address for address;\r\n  using Strings for uint256;\r\n\r\n  Arteon public ARTEON_TOKEN;\r\n  ArteonGPU public ARTEON_GPU;\r\n\r\n  uint256 public constant DURATION = 2 days;\r\n  uint256 public initreward = 2500 * 1e18;\r\n  uint256 public starttime = 1621693530;\r\n  uint256 public periodFinish = 0;\r\n  uint256 public rewardRate = 0;\r\n  uint256 public lastUpdateTime;\r\n  uint256 public rewardPerTokenStored;\r\n  uint256 private _totalSupply;\r\n\r\n  mapping(address => uint256) public userRewardPerTokenPaid;\r\n  mapping(address => uint256) public rewards;\r\n  mapping (address => uint256) private _balances;\r\n  mapping (uint256 => address) private _tokenApprovals;\r\n  mapping (uint256 => address) private _owners;\r\n  mapping (address => mapping (address => bool)) private _operatorApprovals;\r\n  uint256 private _minerCount;\r\n\r\n  event RewardAdded(uint256 reward);\r\n  event ActiveCards(address indexed user, uint256 amount);\r\n  event Deactivated(address indexed user, uint256 amount);\r\n  event RewardPaid(address indexed user, uint256 reward);\r\n\r\n  constructor(address token, address gpu) {\r\n    ARTEON_TOKEN = Arteon(token);\r\n    ARTEON_GPU = ArteonGPU(gpu);\r\n  }\r\n\r\n  function miners() public view virtual returns (uint256) {\r\n    return _minerCount;\r\n  }\r\n\r\n  function ownerOf(uint256 tokenId) public view virtual returns (address) {\r\n    address owner = _owners[tokenId];\r\n    require(owner != address(0), \"ERC721: owner query for nonexistent token\");\r\n    return owner;\r\n  }\r\n\r\n  modifier updateReward(address account) {\r\n    rewardPerTokenStored = rewardPerToken();\r\n    lastUpdateTime = lastTimeRewardApplicable();\r\n    if (account != address(0)) {\r\n        rewards[account] = earned(account);\r\n        userRewardPerTokenPaid[account] = rewardPerTokenStored;\r\n    }\r\n    _;\r\n  }\r\n\r\n  function lastTimeRewardApplicable() public view returns (uint256) {\r\n      return Math.min(block.timestamp, periodFinish);\r\n  }\r\n\r\n  function rewardPerToken() public view returns (uint256) {\r\n    if (totalSupply() == 0) {\r\n      return rewardPerTokenStored;\r\n    }\r\n      return\r\n      rewardPerTokenStored.add(\r\n          lastTimeRewardApplicable()\r\n              .sub(lastUpdateTime)\r\n              .mul(rewardRate)\r\n              .mul(1e18)\r\n              .div(totalSupply())\r\n      );\r\n    }\r\n\r\n    function earned(address account) public view returns (uint256) {\r\n      return\r\n        balanceOf(account)\r\n          .mul(rewardPerToken().sub(userRewardPerTokenPaid[account]))\r\n          .div(1e18)\r\n          .add(rewards[account]);\r\n    }\r\n\r\n\r\n  function totalSupply() public view returns (uint256) {\r\n    return _totalSupply;\r\n  }\r\n\r\n  function balanceOf(address account) public view virtual returns (uint256) {\r\n    return _balances[account];\r\n  }\r\n\r\n  function _mine(uint256 tokenId) internal {\r\n    address sender = msg.sender;\r\n    require(!address(sender).isContract(), \"Required\");\r\n    require(tx.origin == sender, \"Required\");\r\n    _totalSupply = _totalSupply.add(1);\r\n    _balances[sender] = _balances[sender].add(1);\r\n    _owners[tokenId] = sender;\r\n    _minerCount++;\r\n    ARTEON_GPU.safeTransferFrom(sender, address(this), tokenId);\r\n  }\r\n\r\n  function _deactivate_gpu(uint256 tokenId) internal {\r\n    _totalSupply = _totalSupply.sub(1);\r\n    _balances[msg.sender] = _balances[msg.sender].sub(1);\r\n    delete _owners[tokenId];\r\n    _minerCount--;\r\n    ARTEON_GPU.safeTransferFrom(address(this), msg.sender, tokenId);\r\n  }\r\n\r\n  // Mine visibility is public as overriding ArteonGPU's mine() function\r\n  function mine(uint256 tokenId) public updateReward(msg.sender) checkhalve checkStart {\r\n    require(tokenId >= 0, \"You need to active at least one Arteon GPU\");\r\n    _mine(tokenId);\r\n    emit ActiveCards(msg.sender, tokenId);\r\n  }\r\n\r\n  function deactivate_gpu(uint256 tokenId) public updateReward(msg.sender) {\r\n    require(tokenId >= 0, \"You need to deactivate at least one GPU\");\r\n    _deactivate_gpu(tokenId);\r\n    emit Deactivated(msg.sender, tokenId);\r\n  }\r\n\r\n  function getReward() public updateReward(msg.sender) checkhalve {\r\n    uint256 reward = earned(msg.sender);\r\n    if (reward > 0) {\r\n      rewards[msg.sender] = 0;\r\n      SafeERC20.safeTransferFrom(ARTEON_TOKEN, address(this), msg.sender, reward);\r\n      emit RewardPaid(msg.sender, reward);\r\n    }\r\n  }\r\n\r\n  modifier checkhalve(){\r\n    if (block.timestamp >= periodFinish) {\r\n      initreward = initreward.mul(50).div(100);\r\n      ARTEON_TOKEN.mint(address(this), initreward);\r\n      rewardRate = initreward.div(DURATION);\r\n      periodFinish = block.timestamp.add(DURATION);\r\n      emit RewardAdded(initreward);\r\n    }\r\n    _;\r\n  }\r\n  modifier checkStart(){\r\n    require(block.timestamp > starttime,\"not start\");\r\n    _;\r\n  }\r\n\r\n  function notifyRewardAmount(uint256 reward) external onlyOwner updateReward(address(0)) {\r\n    if (block.timestamp >= periodFinish) {\r\n      rewardRate = reward.div(DURATION);\r\n    } else {\r\n      uint256 remaining = periodFinish.sub(block.timestamp);\r\n      uint256 leftover = remaining.mul(rewardRate);\r\n      rewardRate = reward.add(leftover).div(DURATION);\r\n    }\r\n\r\n    lastUpdateTime = block.timestamp;\r\n    periodFinish = block.timestamp.add(DURATION);\r\n    emit RewardAdded(reward);\r\n  }\r\n\r\n  function _checkOnERC721Received(address from, address to, uint256 tokenId, bytes memory _data) private returns (bool) {\r\n    if (to.isContract()) {\r\n      try IERC721Receiver(to).onERC721Received(_msgSender(), from, tokenId, _data) returns (bytes4 retval) {\r\n        return retval == IERC721Receiver(to).onERC721Received.selector;\r\n      } catch (bytes memory reason) {\r\n        if (reason.length == 0) {\r\n          revert(\"ERC721: transfer to non ERC721Receiver implementer\");\r\n        } else {\r\n        // solhint-disable-next-line no-inline-assembly\r\n          assembly {\r\n            revert(add(32, reason), mload(reason))\r\n          }\r\n        }\r\n      }\r\n    } else {\r\n     return true;\r\n    }\r\n  }\r\n}\r\n",
  "sourcePath": "D:/Workspace/Arteon/monorepo/contracts/miner/ArteonMiner.sol",
  "compiler": {
    "name": "solc",
    "version": "0.8.0+commit.c7dfd78e.Emscripten.clang"
  },
  "schemaVersion": "3.3.4",
  "updatedAt": "2021-06-13T11:59:56.579Z",
  "devdoc": {
    "kind": "dev",
    "methods": {
      "onERC721Received(address,address,uint256,bytes)": {
        "details": "See {IERC721Receiver-onERC721Received}. Always returns `IERC721Receiver.onERC721Received.selector`."
      },
      "owner()": {
        "details": "Returns the address of the current owner."
      },
      "renounceOwnership()": {
        "details": "Leaves the contract without owner. It will not be possible to call `onlyOwner` functions anymore. Can only be called by the current owner. NOTE: Renouncing ownership will leave the contract without an owner, thereby removing any functionality that is only available to the owner."
      },
      "supportsInterface(bytes4)": {
        "details": "See {IERC165-supportsInterface}."
      },
      "transferOwnership(address)": {
        "details": "Transfers ownership of the contract to a new account (`newOwner`). Can only be called by the current owner."
      }
    },
    "version": 1
  },
  "userdoc": {
    "kind": "user",
    "methods": {},
    "version": 1
  }
}